:100000000C942E4B0C94994B0C94994B0C94994B4B
:100010000C94994B0C94994B0C94994B0C94994BD0
:100020000C94994B0C94994B0C94994B0C94994BC0
:100030000C94994B0C943A4E0C94794E0C941E4CA3
:100040000C94994B0C94994B0C94994B0C94994BA0
:100050000C94994B0C94994B0C94994B0C94994B90
:100060000C94994B0C94994B0C94994B0C94994B80
:10007000105AF859FA59FC59FE59005A025A045AB2
:10008000065A085A0A5A0C5A0E5A505A2C5A2F5AC3
:10009000325A4D5A4D5A4D5A4D5A355A385A3B5A82
:1000A0003E5A4D5A4D5A4D5A4D5A415A445A475A42
:1000B0004A5A2F5E195E1B5E1D5E305E305E305EFA
:1000C000305E1F5E215E235E255E305E305E305EF8
:1000D000305E275E295E2B5E2D5E1B5F265F315FE3
:1000E0003C5F475F5F5F775F8F5FA75FCA5FED5FD2
:1000F00010603360466059606C607F60A260C560CC
:10010000E8600B611E613161446157617A619D61F4
:10011000C061E361F66109621C622F62426255624E
:1001200071628D62A062B362C662D962096339638B
:10013000696399639963B4634A644E645264566414
:100140005B6461646B646E64EA64F164F864FF6428
:1001500078647F6486648D64D064CC64D064CC643D
:1001600094649B64A264A964FF64EA64F164F86423
:10017000B064B764BE64C564CC64D064D764E26420
:10018000EA64F164F864FF6406651B652F654465E5
:100190005D655D65C766C766C766C766CC66CC66C3
:1001A000CC66CC66C266C266C266C266CF66CF66E1
:1001B000CF66CF66D466D466D466D466D966D9666F
:1001C000D966D966E066E066E066E066E566E56603
:1001D000E566E56618671F6726672D67CF67CF67F7
:1001E000CF67CF67CF67CF67CF67CF674E675B6754
:1001F00034674167CF67CF67CF67CF678F6768671F
:1002000075678267CF67CF67CF67CF67B667C3670A
:100210009C67A967810045005DFF5E1027FF2AD219
:100220002B7D210C22FB850084008903888D8109A8
:100230006F02444247004501B083B300B10124B9C5
:1002400025578A1D8B035A550120010100380800EB
:10025000000000000000000000000000000000009E
:100260000000000000007B517E51DA51DF51E75160
:1002700086518B519051F051935196519951D451CF
:10028000D751005200408891D2E4ADB5B6BEBFFF51
:1002900020464F5220454143482043495243554947
:1002A000542C20415252414E4745205448450A2083
:1002B000544F4B454E5320544F20464F524D2041F2
:1002C00020434F4E54494E554F55530A20504154E8
:1002D000485741592046524F4D2056434320544FD2
:1002E00020474E4420544841540A204C4947485422
:1002F00053205550205448452044455349474E41CA
:10030000544544204C4544532E0A0A20414C4C206D
:10031000544F4B454E53204D555354204245205584
:100320005345442C20414E440A2054484552452010
:1003300043414E204245204E4F204C4F4F534520C5
:10034000454E44532C0A20455843455054204F4EA7
:10035000205448452053574954434820414E442097
:10036000474E440A20544F4B454E532E2054484587
:1003700052452049532041204255494C544A494E48
:100380000A2052554C4520434845434B4552205482
:100390004F2048454C502E0A0A20544845204E4FC5
:1003A000524D414C2052554C4553204F4620454C10
:1003B000454354524943414C0A2043555252454EFD
:1003C0005420414E44204C454453204150504C59F8
:1003D0002E2041564F49440A204352454154494E2C
:1003E000472053484F525420434952435549545390
:1003F0002E00180E141C120E0B1504031C000B0B00
:100400001C0208110214081312020E0D061100132B
:10041000140B0013080E0D1213180B04111C120EEE
:100420000C04110F1419190B04121C01181C1604CA
:10043000081B0716001C0714000D061A080D1504EA
:100440000D1304031C01181C03001508031C1800DD
:100450000A0E12141904010E171C06000C041C05C8
:10046000091009101C0C0013131C0F000D03080DBC
:10047000001104150804161C040D03080D06070ED0
:10048000161C130E1C0F0B001812130011131C0660
:10049000000C040F1419190B04020811021408139C
:1004A000071F3F38C88C09121B242D363F03040553
:1004B00006061C06070804071C090A041C05030E8F
:1004C0000D1C0C0E0B1C03040506061C0607080475
:1004D000071C090A041C0B050C071C0D0E040D0F4C
:1004E0000E077CC6E27E060604007CC6C27E1AF2B7
:1004F000E2007CC6027E02FEFC003C62027CC0E69A
:100500007C007CFE1210181818003078ECE4FEC253
:10051000C2007CC6027E0606060070CCC2C2E2FEA5
:100520007C0046CEDAF2E2C6460080C66E3838EC71
:10053000C6007CC60202C6FE7C001030303038385F
:10054000380040C2C2C2E67E3C003C4299859942D6
:100550003C007CE6C46018FC7E007CC2C2C2E2FEA5
:100560007C000000003E000000003078ECE4FEC299
:10057000C2003E62327EE2F27E007CC60202C6FE0D
:100580007C003C62C2C2E2FE7E007CC6027E02FEAD
:10059000FC007CC6027E060606007CC60202F2E66D
:1005A000BC0042C2C2FEC2C6C6001030303038386D
:1005B0003800000000F8000000006436163E76E6C1
:1005C000E6000406020282FE7C0062F6DECAC2C6B3
:1005D000460046CEDAF2E2C6460070CCC2C2E2FE67
:1005E0007C007CC6E27E060604007CE2C2C27AE69B
:1005F000DC007CC6C27E1AF2E2003C62027CC0E6ED
:100600007C007CFE12101818180040C2C2C2E67EA0
:100610003C0040C2C2C46438180040C2D2DADAFEDC
:100620006C0080C66E3838ECC6008086CC78301CF2
:100630000C007CC060100CFE7C0000000000001864
:10064000180C000000000018180000804080208076
:1006500040800092408000A1408000C0408020C0C7
:10066000408020F34080080042C0000642E008407D
:1006700042C0486642C000804680028046800880B2
:100680004680208046802A80468000C04680000444
:1006900048A0200448A0081048E02A3448A00824B4
:1006A0004AE000A04A8002A04A8040A04A8042A1BD
:1006B0004A8002144CA000904C8008904C804090DE
:1006C0004C8048924C8000044EA000054EA00006CD
:1006D0004EA020074EA0480252C0008252800282E3
:1006E0005280008652800296528000815480088198
:1006F00054800085548008A5548000805880208054
:100700005880408058800084588000C0588040C481
:10071000588008005AC008015AC008105AC0085131
:100720005AC048825E8020835E8002945E8008A466
:100730005E8000D15E800480C48004C0C4800C242C
:10074000C8A004A0C8800404CCA0048000C180908C
:1007500000E104C000C184D900C1000002410100D1
:100760000241800402414008024100400241014030
:100770000241C14C024100800341018003410280DB
:100780000341048003410780034100C00341040486
:1007900008E10010086101100861071C0861049855
:1007A00008E102140961009009614090096180909C
:1007B0000961C190096100880A4102880A410089E3
:1007C0000A4142890A4100040B4104040B4100051F
:1007D0000B4184050B41848110C1808012418280CD
:1007E0001241809012418294124140001341440012
:1007F00013414010134144181341048018C1448030
:1008000018C1048418C144C418C100001A41010071
:100810001A4100011A4100101A4100401A410051CA
:100820001A41C1801B4184811B4102941B410498E1
:100830001B4140C41B4108002341084023410C18C0
:1008400028610810296108082A41108042C110C09F
:1008500042C1121448E1109048E1509048E1100460
:100860004AE110054AE11081508110855081500005
:100870005241501052411900624119406241191011
:10088000686119007A413480C08134C0C081340469
:10089000C8A13480D881882442C280A0428280804E
:1008A0005082A0805082880052C284A1C08284817C
:1008B000D482049A00C3008A0243048210C3000257
:1008C000124301021243480A2243480233439092E2
:1008D000408390064243908252C3808000A4A0804F
:1008E00000A4048200E4B48300A4880002E40002AF
:1008F000026401020264D9020264908202E44802A6
:100900000364008203640282036404820364078236
:100910000364848104A4808006A4828006A4888065
:1009200006A4AA8006A400000824010008240C00E4
:1009300008241200082420000824210008243F0075
:100940000824008009240180092420800924408093
:10095000092480800924C180092410800A24508041
:100960000A2410810A2452810A2408000B248800DA
:100970000B2408010B248C010B2404800C244480DC
:100980000C2404820C244C820C2402000D248200CE
:100990000D2402020D2492020D2400000E240100F9
:1009A0000E2420000E2400010E2400020E24200339
:1009B0000E2407800F242A800F2484810F2448826C
:1009C0000F2490820F249006226400062364000402
:1009D00029242004292410042A24480A42E4008AF5
:1009E00042E4028A42E400894484088944840088FD
:1009F00048A4208848A408084AE408094AE40208F0
:100A00004C24020A4C24010E6264010C6824210C5F
:100A10006824010C6E24909280A4809084A410908D
:100A2000882400108C2401108C241214A824021491
:100A3000AD24049AC0840C18C8240498CCA484A1C2
:100A400000E580A002E582A002E5402003454420A5
:100A5000034504A008E544A008E5022009258220FA
:100A6000092500200A6501200A65882422450C24F6
:100A7000282508242B6510A94085502842451228B6
:100A8000482510A84AE5A0B080A52030882521304F
:100A9000882520B0892580C84086A0C8408688481F
:100AA00042C680C8468604E200C70062024701626F
:100AB000024700E2034700000000010000000001BF
:100AC000000000000100000000010101000101011F
:100AD0000100000101010100010101010101010109
:100AE00001010101010101010101000101000000FA
:100AF00001010100000101010000010101010101EA
:100B000001010101010101010101000100010100D8
:100B100001000001000101000100010101010101CA
:100B200001010101010101010101000001010100B8
:100B300000010101000000010100000100010100AD
:100B40000100010101010101010100000101010099
:100B5000000101010000000101000001010101008C
:100B60000101010100010101010001010101010177
:100B70000101000000000000000001000000000171
:100B8000000000000100000000010101000101015E
:100B9000010000010101010001010000010101004B
:100BA000000101010000000101000001010000003E
:100BB000010101000001010100000100010000012C
:100BC000000101000100000100010001000101001D
:100BD000010000010001010001000001010000000E
:100BE00001010100000101010000000001010100FC
:100BF00000010101000000010100000100010100ED
:100C000001000101010101010101000001010100D8
:100C100000010101000000010100000101010100CB
:100C200001010101000101010100010101010101B6
:100C30000101000000001A1B0B0A0609080809043C
:100C4000080A090704050605071C070D0E050C0612
:100C50000405070A040C06211B2A272F0516232446
:100C60001117140B3F0A080E0C3C3D09262B0F00F0
:100C70000132132534333618101E3B353A22022830
:100C800004191F3907291C0312151D38301A0D2CA1
:100C900020312D2E3E371A232C153C1634123536B2
:100CA0003A241437190A2A01021C251F0008332987
:100CB000051E3B0E27262F18111B3820170D283133
:100CC000320F3D2B130322043021073F1D0B3E2D15
:100CD0003909062E100C283927160E2B2A033C340E
:100CE000182E35060D36333710213F151F1C1219EB
:100CF00020090B24260F073D31112D140032220A42
:100D00002F291713053B2C02233E1A1D3A251E1BC3
:100D10000430010C08381804253B143D2A11060C38
:100D20000920050F2115393C1F1D02103E072D011A
:100D3000032B1B3F350B24292728133A0838193079
:100D4000371C00320E2C1A1226343631332E0D1673
:100D500023171E2F220AFFFF030303030303FFFFD2
:100D6000000000000000FF7F6060606060600303BF
:100D7000030303030303606060606060606003035B
:100D8000030303FFFF010000000000FFFF0060609D
:100D90006060607F7F000000183C3C1800003E63EC
:100DA000613F0D7971003E63013F017F7E001E317E
:100DB000013E60733E003E7F09080C0C0C003E6350
:100DC0000101637F3E00081818181C1C1C002061DC
:100DD0006161733F1E00317B6F6561632300236790
:100DE0006D797163230038666161717F3E00321B4B
:100DF0000B1F3B7373001824247E566A7E00000488
:100E0000010203080506070C090A0B100D0E0F144A
:100E1000111213181516171C191A1B201D1E1F223C
:100E2000212423282526272C292A2B2E2D2F30312B
:100E300032333435363738393A3B3C00020304014B
:100E4000060708050A0B0C090E0F100D12131411DA
:100E5000161718151A1B1C191E1F201D22212423CA
:100E6000262728252A2B2C292E2D2F3031323334BA
:100E700035363738393A3B3C7CC2C2C2E2FE7C0090
:100E800010383838383810007CE6C46018FC7E0012
:100E90007C6030FCC0FE7C0060706864FEFC60001A
:100EA0007E067CC0C0FE7C003C62027EC2FE7C00EE
:100EB0007CC2C070181C1C007C663C7CC6FE7C009A
:100EC0007CE2C2FCC0C27C000300000000001500F0
:100ED00000000000220000000000000000000000F0
:100EE000000500000000000000000000003A3A3158
:100EF00000000000000000000000000000032825A2
:100F00000000002E26000007000000000000000086
:100F10000600000000000000000000003A3700005A
:100F200000000000000000000000000000000000C1
:100F30000000250000000100260000000000000461
:100F40000600000000000000000000333731000000
:100F50000000000000000000000000280025000044
:100F6000002900000000000000000000000004064E
:100F700000000000000000000000333730310000A6
:100F8000000000000000000000022929000000000D
:100F90001F00000000210000000000000004050602
:100FA0000000000000000000003A3A333531000034
:100FB0000000000005000300000000001D002F00DD
:100FC000000000000000000000000000060000001B
:100FD00000000000000000003C3A3A3A3A000000ED
:100FE0000000000D001D00000000000000001100C6
:100FF00000000001000000000000000704020308D8
:101000000105030901020638383A3A35310000007B
:1010100000200004000000000000000000000000AC
:1010200008000000000000000000040506000000A9
:101030000000000000003B3B3335000000000000D2
:101040000000000E0000001F000000000000000073
:101050000000000000000000000406000000000086
:1010600000000000003A3A3B303100000000000070
:101070000000000000022500000000000000000049
:1010800000000000001F0000050600000000000036
:10109000000000003A3B381831000000000000005A
:1010A000002100002C0000000000080000000000EB
:1010B0000000000000000005060000000000000025
:1010C0000000003A3A353730000000000000002FE1
:1010D00000002200000000000025000000000000C9
:1010E00000000000000005060000000000000000F5
:1010F00000003A3B3537303100000000000020008E
:1011000000000000170000000000000000000000C8
:1011100000000000000506000000000000000000C4
:1011200000383B3A3A303100000000000000000077
:101130000000000000000000250000120031000047
:101140002700000007040203080105030901020645
:10115000383833353730000000000000030000004D
:1011600037000000000000000006172A00002721B9
:101170000F00000102060000000000000000003B1C
:101180003A3A3A00000000000000000000000000B1
:10119000000000112D0E0000000000000000000003
:1011A00000000701020308010506090405033A3A95
:1011B00035373031000000000000003525002D00DB
:1011C0002F002705000000000000000000000000C4
:1011D000000405060000000000000000003B3A3358
:1011E000373000000000002F000600000000000063
:1011F00000001200000000003700000100000000A5
:101200000704050308010503090105063B3B3A3ABB
:1012100033350000000000001D000000080033000E
:1012200000000000000000000000000001000004B9
:1012300005060000000000000000003B3C3A3A3A7E
:10124000350000000000000000002C250000000018
:1012500039002500003700000000000000000406EF
:10126000000000000000000000003A383330310078
:101270000000000000000000000020170000003AFD
:10128000003A3000000000000008000000040203E3
:101290000000000000000000003A3A3B3B33000031
:1012A0000000000000000000000000000000250019
:1012B00000000000000700000021040004050600F3
:1012C00000000000000000003B3B3C0D181D00002A
:1012D00000000000060003000000200000003B00AA
:1012E00000000027000000000000000105030000CE
:1012F000000000000000003A3B3C333500000000D5
:1013000000000000000000050000000000230000B5
:101310002700003A00000030000004000000000038
:10132000000000000000383B3C3A3A3A330000002D
:10133000000025000003353300000000000000001D
:101340000000000000000000000405000000000094
:101350000000000000383B3A3A3A3100000000003B
:101360000000000000000006000D00002C00003905
:10137000380000000000000004060000000000002B
:10138000000000003A3A3A3A37300000000000000E
:10139000280000003A113B00070000000000000098
:1013A00030000000000000070400000804000009ED
:1013B0000400003C3A3A3B330000000000000020EB
:1013C0000000000000220000000039000007003A81
:1013D0001800002F000005060000000000000000BB
:1013E0000000383A3A3A3B3B300000000000000071
:1013F00000000000000000000020000000000000CD
:1014000000100000000405060000000000000000BD
:10141000003A383B35303100000000000600000083
:10142000000000000000001F002F0000000000006E
:10143000000000000405060000000000000000009D
:101440003B3C3A3A33353000000000000000000019
:101450003800010000002F00000000000000000024
:101460000000000405060000000000000000003A33
:101470003B33353731000000000000000000300031
:101480003A0000000000002F00003A002500000094
:101490000000040600000000000000000000383BCF
:1014A000393337310000000000000500002C000037
:1014B000000022002F00001F0000000000000000BC
:1014C000000405060000000000000000003B3C3A5C
:1014D00033353000000000002F28003000000000ED
:1014E000000000000000002721260000000000008E
:1014F0000405060000000000000000003B3B3C33F8
:1015000035373100000000002921000000000030C4
:1015100031002F0000000000000000000000000467
:1015200005000000000000000000003C3A3A3A3A92
:101530003A333500000000000000000000000037D2
:10154000000000000000070000000000000004068A
:10155000000000000000000000003A3A3B33300079
:101560000000000000002F000000003A0000000012
:10157000063A180000003B260000000000040203A9
:101580000000000000000000003A3B33373000004C
:101590000000000000000000000002000000000049
:1015A000003331350000000000000000070405038F
:1015B00008010503090105063A3A3B3B37340000B0
:1015C000000000003A000000380000003A0000006F
:1015D0000000002704001F070000000405060000AB
:1015E00000000000000000393A3B3B3335000000AA
:1015F00000003A003000000000000000002D000054
:101600000000113A00000000000007010203080179
:10161000050309040206383B33353731000000006A
:101620000000000000000033003A00003900000014
:101630000037312200000000000403000000000019
:1016400000000000003C3B3B3A3A30000000000044
:10165000000000000000000000000010000000007A
:10166000000000002B003700040506000000000009
:1016700000000000383B3A3A3530310000000000ED
:1016800000000000002F00000000000000003500F6
:10169000000000003A0000070102030801050609E6
:1016A0000405033C3A3337303134000000000000B9
:1016B0000000002B00000005001800000000003BA7
:1016C00000000000003004020600000000000000DE
:1016D0000000383C3A3A3A3A333700000000000044
:1016E000000000000000000000000028002D3A303B
:1016F00000080000000704030008040600090103B5
:10170000003B3A3A3A333734000000022900000027
:10171000282A0000000000392600000026000000F2
:1017200000000000040506000000000000000000AA
:101730003A3A3C3335373100000000000000000029
:101740003A3933000000000000003A0000070000B2
:101750000000000105000000000000000000003C47
:101760003A3B3B3530000000000229000000282BE6
:1017700000000000003926000000260000000000E4
:1017800000000405060000000000000000003C3AD4
:101790003A3335373100000000000000000000003F
:1017A0000000000000000028002D00302708000085
:1017B000000704030008040600090103003B3A3A4D
:1017C0003A333734000000000028310000000000E8
:1017D00000020000003A00002700000000000000A6
:1017E0000701050608010506090405033B3B393CD2
:1017F0003335373400000000000000000000050011
:101800000000000000003400000000370000000766
:101810000402030804050309040206383B3B3A3A74
:101820003A333530000000000000000000380000AE
:101830003A3A3A0000003A3833000000000007014D
:10184000020608010206090405063B35373031342B
:101850000000000000310000003A003A00000020C3
:1018600000000000003A0000000000000001050632
:10187000000000000000000000383C3B3B333530E6
:101880000000000000000000002F00000000000029
:1018900025000000000000300000000007040503E0
:1018A00008040206090402033B3838333537313463
:1018B00000000000280000000000002500000015C6
:1018C00000000011000000000100000704050308EB
:1018D00004050309010206383C3B3B3A3A3A3337E8
:1018E0003100000000000000001D18000000000092
:1018F0000022003000001000000004050600000077
:1019000000000000000038393B3B3A3A3A3A3A319D
:101910000000210000000000000001002A35000046
:101920000000000700000000000701050308040292
:101930000609010206383B3A3A3A3A333734000096
:101940000000002F000000300000003A00220006D6
:10195000000000000000000005060000000000007C
:101960000000000038393B3B3A3A3A353700000076
:1019700000000000003A0E000000000000002F00F0
:101980000000000000080007040600080106000926
:101990000106003C3B3B3A3A37303400000000007F
:1019A00000000000002500353A00001D0000000086
:1019B0000000000000000405060000000000000018
:1019C0000000383B3C3A3A3A33303100F0F0F0F066
:1019D000F0F0F0F0F0F0F0F0F0F0F0F0F0F0F0F007
:1019E000F0F0F0F0F0F0F0F0F0F0F0F0F0F0F0F0F7
:1019F000F0F0F0F0F0F0F0F0F0F0F0F0F0F0F0F0E7
:101A0000F0F0F0F0F0F0F0F0F0F0F0F0F0F0F0F0D6
:101A1000F0F0F0F0F0F0F0F0F0F0F0F0F0F0F0F0C6
:101A2000F0F0F0F0F0F0F0F0F0F0F0F0F0F0F0F0B6
:101A3000F0F0F0F0F0F0F0F0F0F0F0F0F0F0F0F0A6
:101A4000F0F0F051F0F0F0F0F0A25148F0F0F0F0CA
:101A5000F0F0F0F0F0F0F0F0F0F0F0F0F0F0F0F086
:101A6000F0F0F0F0F0F0F0F0F0EAA2A2F0F0A1A3B4
:101A700051510048A25008520000520151004A0042
:101A8000015301015201025201005201F0F0F0F045
:101A9000F0F0F0F0F0F0F0F0F0F0F0F0F0F0F0F046
:101AA000F0F0F0F099519A5199A2EBF000520049F0
:101AB00000514951004A004A000001000101520151
:101AC000015201525200090052000052F0F0F0F0B1
:101AD000F0F0F0F0F0F0F0F0F0F0F0F0F0F0F0F006
:101AE000F0F0F0F0F0F0F0F0F0F0F0F099EAF0F053
:101AF000F0F0F0F0005199EAF0F0F0F049005151A7
:101B0000EBF0F0F00152005150A2F0F0F0F0F0F0E4
:101B1000F0F0F0F0F0F0F0F0F0F0F0F0F0F0F0F0C5
:101B2000F0F0F0A2F0F0F0F0EB999951F0F0EBEB5F
:101B300051004900F0A2995148004901EB51480079
:101B4000510052015150510052000052F0F0F0F09B
:101B5000F0F0F0F0F0F0F0F0F0F0F0F0A2A2505061
:101B60005051A2980051000951000052005200014A
:101B70000901520100015201520101010909080045
:101B8000520052010009520052005201F0F0F0F0F0
:101B9000F0F0F0F0F0F0F0F0F0F0F0F0A2EAF0F099
:101BA000F0F0F0F000515199EBF0F0F04A004900EC
:101BB0005151EBEB010101490000519952520009CA
:101BC000510900510001090000090000F0F0F0F097
:101BD000F0F0F0F0F0F0F0F0F0F0F0F0F0F0F0F005
:101BE000F0F0F0F0F0F0F0F0F0F0F0F0F0F0F0F0F5
:101BF000F0F0F0F0EBF0F0F0F0F0F0F099EBF0F046
:101C0000F0F0F0F05150EBF0F0F0F0F0F0F0F0F018
:101C10009A00004AF0F0F0A348520152F0F0A300FD
:101C200001015200F0A2510052005201F0A2000046
:101C300009520952F050520152095252A251000168
:101C400052525252A249520A520A52010101520101
:101C5000520009000052000009520000520851527F
:101C600000520009090109095201520101525301B0
:101C7000525309010109530952535201535252530D
:101C800052090153520109535253090152005200A3
:101C9000095201005201520152015209015201013F
:101CA000520101520053520153530152530A01533E
:101CB00009095309520A52530A5353530153530902
:101CC00053090901090153015353520152005200B3
:101CD0005151A3F000520101520051A401015301DE
:101CE00002015252015301015201015252015201AB
:101CF0005352000001525301015201525301524A02
:101D000001524A005201015301015201F0F0F0F07A
:101D1000F0F0F0F0F0F0F0F0F0F0F0F0F0F0F0F0C3
:101D2000F0F0F0F0A4F0F0F0F0F0F0F052A4F0F0E9
:101D3000F0F0F0F00052F0F0F0F0F0F05200A3F00C
:101D4000F0F0F0F0520152F0F0F0F0F0F0F0F0F0BE
:101D5000F0F0F051F0F0F0F0F0F09A52F0F0F0F016
:101D6000F0F05100F0F0F0F0F0515100F0F0F0F030
:101D7000EA510900F0F0F0EAA2510952F0F0F0EA5D
:101D800051005200F0F0F098510001535100005200
:101D9000000001520109520053010953520153013D
:101DA000015353525201520952520152535201539C
:101DB00053535352015201015209530A0101525324
:101DC00001530152520101015201530101520952C2
:101DD00009005200015201015201090153530153FC
:101DE000015201520A5253520153015253530A01F4
:101DF0005252530152535201015253520A5301534A
:101E0000535253525201530901530153525200523B
:101E10005200520001520100010101010152015220
:101E20000152010101530101014A52015252015272
:101E30000152014A5353015201520153520152536C
:101E4000015352015253010952525309525151F058
:101E5000F0F0F0F0520051A3F0F0F0F04A004952D7
:101E6000A4F0F0F05200490052F0F0F001015201EC
:101E700052A4F0F00153010152A4F0F009530052B2
:101E80000152F0F0520952090052F0F05000535341
:101E90005352525351520152530A52535100535309
:101EA000090152015152010A530953535100520979
:101EB00001520153510053090A0952535100520172
:101EC0000901535351510101530953A509535209B3
:101ED000535201530101535201520A010152095256
:101EE0005301015353535201525253015353095357
:101EF000010A0153A553525252015301F753520A9A
:101F000052530153F753530953534A5301535C52ED
:101F10000A5309535352A5A5520A53010153A5AEC2
:101F2000535253090A53A5F7A55353095253A5F722
:101F3000ADAD53535353AEF7F7ADA5535353F7A578
:101F4000F7A5F6A55353F7AEF7AEADF60953015317
:101F500001530153520153010A4A01535301525391
:101F600053015301520A01015353024A0953535377
:101F70005353015352015302535353025B53525371
:101F80004B544B02A55253535354544B014952A343
:101F9000F0F0F0F001010152F0F0F0F05301010017
:101FA000A4F0F0F05353534A53F0F0F04B4B01526E
:101FB000A4F0F0F05353539B9BF0F0F0534B53516C
:101FC000ECF0F0F0A64B53A3F0F0F0F0F0F0EA5193
:101FD00000520152F0F3A24800520152F0F3A20065
:101FE00052010152F3EA510001525252F3A2514AF6
:101FF00009015200F499510152525252F3A3525224
:1020000001530100F350A4520153520101520952ED
:1020100001530953010153015201015201520101BF
:10202000095301530100535201015253015201520D
:10203000530953A50153525353535BF65209535B53
:102040000953A5AE5201525C535CAEAD0A52A55283
:102050000152530952A5A553010953525CF6AD53E1
:1020600052530153F6F7A55309530953F7ADA5523F
:1020700001530952F7ADA55309535301F6A55B531C
:1020800053015353F7F7A4525353530101530153D0
:10209000015352530152010953095352090153523A
:1020A0005352530901090A52530953015352535BC6
:1020B000A5525353090152A5A4530953535352A592
:1020C000F6535353535253A5F7A54A0A09520952DE
:1020D0000952A4F0015201520152A4F053014A01E5
:1020E000534AA5F0530153010152A4F00153015387
:1020F0000052A4F0095201520051A3F009530952B1
:102100000052EAF0520153524949A3F051005201E2
:10211000530A53AE51510152010AA5F7A249525335
:102120005353A5F7A251010A5253A5A5A2515253E8
:10213000535CA55CF051015353535353F0995253E0
:1021400053535353F0A35253A5539BA5A5A5520A2D
:102150005B535353AEA5520A53534B53F7A55253F7
:10216000530A53A5A5A50A53535454A50109535422
:10217000540A545C53520A5354545C54535B5354A2
:1021800054540B5CF7AE5B5C545C54A553A5F7FF4D
:10219000ADF6A5A454A5A5A5A509010954A5A5A515
:1021A000A409090A5453A5F7A5535B125453A5F685
:1021B000F6A45C5CA5A59CF7FFF6B6B6A5F7A5A5A9
:1021C000F6FFFFB7A5F7F7A4A5FFADFF53525301E4
:1021D00053545D5401010153535454540A53530151
:1021E00053A6A6540A5BAD5353A5A655655CAEA590
:1021F0005CA6A6A6B7B6FF5BA5AEA6A6B7B6AEA56B
:10220000F7AEA6A6B6AE5BAEF7F7AFA6A65453528E
:10221000F0F0F0F054A64BA3F0F0F0F0A65D5452AD
:10222000F0F0F0F054A654A4F0F0F0F0A754549B52
:10223000F0F0F0F0A6559DA4ECF0F0F0A654A5A4A3
:10224000EDEBF0F09E54A6F0ECF4F0F0F3A2A45203
:1022500053015301F49AA353534A5301F0A39B53E0
:102260004A535301F0EBA453534B5301F0EB9AA4A0
:102270004A545402F0F09BA44A535353F0F0EB9BA2
:1022800053544C4BF0F0F09B9B5454024A5352531E
:102290005353A4A501534A5353530153535353A4C7
:1022A0005353010A53535C5C5C5C5B0A0A5CAE6589
:1022B000B665655C5353AEAEB6B7B6B653A55CAE65
:1022C000B7B6B7FF539DA55CAEAEF6AEF6A55353B9
:1022D0005353535353A452530A530A0A53A55C53FE
:1022E000535453535CAD5C0A53535453AEAEA55391
:1022F000534B549DFFADA554545353A5F7F75C536E
:102300005D545CAEADA5A55C5D5CA5AE5353A4ADBC
:10231000F6A50A535353ADF7AEAD53525C535CADC3
:10232000F6F6A55354535309535B525353530A01C2
:1023300009520053545C0A0A535B5201AEAE5C5C16
:102340005BAD5352AEB7B7B6B7FFAD5301530153B0
:102350005249A3F00A5353530152A3F0530253536B
:10236000534AA3F0540254530153A3F0535454530B
:102370005352A3F0025453540152A3F05454A553A2
:10238000A452EBF05354A59BA49BF0F0F0A252533F
:1023900053A553A5F0F0525353A501A5F0F05353A4
:1023A00054535352F0F09B5353545301F0F09CA5F7
:1023B00054A54B0AF0F0A3A553544B53F0F0A3F0EF
:1023C000F0534B4BF0F0A3F0F0F0534CF6F7FFAEA8
:1023D0005C545CA5F7FFAEAEA65CA5AEA5A5AEAEFF
:1023E000AEA5A5F7A4A5A4A5AEA5ADF7A5A5F6F73E
:1023F000F7F7F7FF53A5F7F7FFF7FFF74B53AEF7E4
:10240000F7AEF7F74B4C53AEF6F7FFF7F7F7FFF6DB
:10241000ADA5AD5CF6AEF7FFF6F6F6F6F7FFF7FF03
:10242000AEF7F6F6F7FFF7FFF7FFF7FFF7FFF7FF57
:10243000AEF7F7F7ADF7FFF7F7FFF7F7FFF7F6F7A8
:10244000F7F7F7F7F7AEF7FFF7AEF7AFADADF6F783
:10245000AEA6A6A6F7F6F6F7F7A5AFA6F6F7F6F737
:10246000F75CA6AFF7FFF7F79D545DA7F7F6F7A562
:10247000545455A7AEF7A6534B9E5DA7F7A5534BF3
:102480005354A6A7A55C534A53535CA65D54A5F0CC
:10249000A3EAF0F05CA6A5F0F0F0F0F05DA5A4F0E2
:1024A000F0F0F0F05DA5F0F0F0F0F0F05DA5A3F035
:1024B000F0F0F0F0A6A5ECF0F0F0F0F05DA5F0F093
:1024C000F0F0F0F0A6EEECF0F0F0F0F0F0F0EBEC65
:1024D0009B535454F0F0F0F0A4545454F0F0F0EB4B
:1024E000ECA45454F0F0F0F0F09C544CF0F0F0F008
:1024F000F0A4544DF0F0F0F0F0A49D9EF0F0F0F058
:10250000F0F0A59EF0F0F0F0F0A49C9D53A5A5F787
:10251000A4A5A4A554A6F7F7F7F6F7F7A6A6F7F72C
:10252000F6FFF7F754A6A5AEF7F6FFF74C4C54F7B5
:10253000F6F7FFF74D9E5453F7ADF7F74C9E4C530B
:102540005CA5FFF79D9D544B5253A5AEA4F6A55C28
:1025500054A6A5AEFFF7AEAEA6F7A5A5F7F7F7AE62
:10256000AEF7F7A5F7F7FFAEAEF7F7F7AEA5A5AE56
:10257000FFF7F7F7F7AEA5A5A6A5F6F7F7AEF7F7BD
:10258000F7F7F7F7F7F7AEF7F7F7F6F6FFAEB7AEF0
:10259000FFF7A553AEFFFFB7AEA5A5A5A5A5AD5BFB
:1025A000A55CF7A6F6AEF6ADAEAEA65CF7F7F7FF04
:1025B000AEAE54A5F6F7F7F7AFA65CA5FFFFAFA642
:1025C000AFA6A5A4F7A55C5DA6A5A5F05DA5A5A4ED
:1025D000A49AF0F0A6A5A4EDF59AF0F0A5A5A3ECB9
:1025E000ECA3EBF0A5F0A3F0EB9AEBF0ADF0EBF081
:1025F000ECA3EBF0F0F0F0F0F0ECECF0F0F0F0F039
:10260000F0F0EBF0F0F0F0F0F0F0F0F0F0F0F0F0CF
:10261000F0F09C9DF0F0F0F0F0F0A44CF0F0F0F051
:10262000F0F0F04CF0F0F0F0F0F0F09DF0F0F0F0A1
:10263000F0F0A554F0F0F0F0A3A49C54F0F0F0F00A
:102640009B539D9DF0F0F051529B539D4C5453A5CC
:10265000A5A5ADF79E9EA5A5A453535B4C9EA5EEE4
:10266000A49B53534C9DEFEE9C5352539D9D549C01
:10267000539B5353A59D4B534A534B53A59D5353C3
:102680005353015353A4A49B52534A53F6F7AEF746
:10269000F7AEA6A6A5F7A6AFA6AFA65D535CA5AEFE
:1026A000A75DA7A7535CA6AF5DAFAFA753A6AEA625
:1026B000AFAFA7AF53A6F7AFA6AFAFA753AEF7A67E
:1026C000AEA6AFF753AEF7AEF7AEAFAFA653095213
:1026D000525353A5AE53535252525C5DAF5C534AB2
:1026E00052525354A6A5535352535C54AFA653535E
:1026F0004A530A5DAEAEA4525253535DAFF7A55292
:1027000052095C13AEAEAD5B525353545CA4F0F06F
:10271000F0F0F0F0A5A5F0F0F0F0F0F05C53A3F0CD
:10272000F0F0F0F05D53A4EAF0F0F0F0555C52F0F8
:10273000F0F0F0F00B5CA3F0F0F0F0F0545B52F02E
:10274000F0F0F0F05CA452F0F0F0F0F09D9D9D539D
:102750000A53AEA6F09B9C535353A6A6F0A49B53DA
:10276000535CAEAFF0EB52A453A5A6A6F0F49A5278
:1027700053AEAFA6F0F0A39B53A6AEF7F0EC9A527F
:10278000A5A5F7AFF09B4952A5F7AEAEAFF7AFA640
:10279000F7F7AEA4A6A6A6AFA65C5B5BA7AFA6AFF5
:1027A000A65C5352AFA7AFAFAFAE5C52AFA6AFAE11
:1027B000AFA5A553AFAFA6AFF7AE5353F7AFAEAECD
:1027C000F7AEA5A4AEA6AFAEF7F7A5A45B5C535CCD
:1027D000A6A5A4F009535C535CA5EDF05B535C53D4
:1027E00053A4A4F552535CA55C53A4A45353535370
:1027F0005C530A5C53525353545C545352A4535287
:10280000530A535CA4A4A45252520953F0F0F0F0BE
:10281000F0F0F0F0F0F0F0F0F0F0F0F0F0F0F0F0B8
:10282000F0F0F0F0ECEBF0F0F0F0F0F05B9BF0F09B
:10283000F0F0F0F05C5352F0F0F0F0F0539C529A4C
:10284000F0F0F0F0535252A49AEBF0F0F0F0A2A3A3
:10285000A49C5353F0F05252A4A49B4AF0EB525361
:1028600053A45352F09A4A535353A452F0A34A53D9
:1028700001535252F09A534B0A015253F09A535358
:102880000153A452F0A34A530A52520153A4525284
:10289000524A535352525A52525253535252525214
:1028A00052535353A452520953535353529B5252AF
:1028B00009535C535252525352535C535253525C1D
:1028C0005B525B535352535252530953A5F7F7AE21
:1028D000AFAEA6AF53AEF7F7AEF7AFAE53AEF7AFAE
:1028E000F7AFF7F754AEAEF7AEF7AEF70AA5A6F717
:1028F000FFAFF7FF535CAEA6AEF7AEAE5C53545CD1
:10290000535CA55C5353535C535C5453F7AEA552D0
:10291000520A0A53F7F7A55BA452535CAEF7A4A57D
:10292000A5AD5B53F7A5A453A5A4A409AEA5535325
:10293000A45B5252A5545453535B52515D5C5353A4
:10294000A452515154545C5353A3529A5C53A4A3C0
:10295000F0F0F0F0535C52A3F0F0F0F05B535C5BEE
:10296000F0F0F0F0535353535BF0F0F009535B5326
:102970005B51F0F05252525C535B51F05252525341
:10298000535252EB52525252535352A3F0F0F0F0C2
:10299000F0F0F0F4F0F0F0F0F0F0ECA3F0F0F0F084
:1029A000F0EC5252F0F0F0F0A3A3525BF0F0F09A8A
:1029B000A4A4A4A4F0F09B9BA5A4AC52F09A9C53B1
:1029C00053525B52EB529B9C5352515BA351525357
:1029D0005CA5FFAF520109535CAEAEAE52525353E9
:1029E00053A5F7FF530953535353A6F7525352536A
:1029F0005353A5AE5252535B53535C5453525B53E3
:102A00005C535C5C535B525253535353FFAFAEAEB7
:102A1000F7AEF7A4AFFFF7AFF7AEA553F7AEF7F7F2
:102A2000F7AFA55CF7F7AFF7F7A55C53F7AEF7AED6
:102A3000F7A55C53A65CA65C5C535C53545C5C5489
:102A40005C5353535C5C5CA55C5C0A53A4A4525277
:102A50005252520953525B52525251525352525295
:102A600051515A515C535BA45252515252A4A4A4E6
:102A7000A49A9B9B53535352A452A49C5252529CCF
:102A8000A452A45353525352A45353525352529BE1
:102A900052ECF0F05252529C529BF0F0525252A41F
:102AA000539BECF0515152535252A3F05252515297
:102AB000A452ECF052525252A452A3F09C52A4528F
:102AC000A451A3F05352A3529B52ECF0F0A35252E4
:102AD00052015252F0524A5252525252A352525240
:102AE00052A45252EB52535252525352A352525288
:102AF000A4534A9B9A9B5352A4A453A59A529B5207
:102B000052A4A49C9A499B5252529B535253525BDB
:102B1000525B520953095252A4A45BA4A45B5B52BA
:102B2000A452A3A4A452A4A4A452A4A4A452A4A4AE
:102B3000A4A4EDA453A4A5A4A452A45253A5A45B99
:102B4000A3A352525253A4A4A4A49A51535354A6DB
:102B5000F7AEA55C535C53AEF7F7AEA5A45353F79D
:102B6000AEF7F753A55354A5F7F7A553535353AEF8
:102B7000F7AEA552A4A553A5F7F7A552A453535CED
:102B8000F7A553A452525353F7A54A5253530A522E
:102B9000525251525453535B52529B9A530A5252BF
:102BA00052A4A49B53535352A4A4A4A4535BA3A420
:102BB000A4A5A5A5A45B5BA45B5253A451A352A3F7
:102BC0005253530A52529B5252539C0152525252E8
:102BD0005253539A51525252529C5352A4525252EF
:102BE000529CA4529B52524952539B52539B525255
:102BF0009B529C52A5A55352A452A452535B53A47A
:102C0000525B52A2535352A452A351A3A3519BA56A
:102C100053525253A3529BA49B535252A349525313
:102C2000A4525352EC524A525352A452A34A534A0A
:102C300052535BA49A5252520953A453A39A52007E
:102C4000525BA452A39A515150A2A39A535252528A
:102C500053015354535353A4A4539C5352A4A4520A
:102C6000A4A4A4539B52A3A4A4A4A453A4A4A4A422
:102C7000A4A45B53A4A4A4A452A452A4A49BA352AE
:102C8000A35252A4A3A3ECA3A3A35252A5F7F7AE59
:102C9000A5535352A5F7F7F7A653535353F7F7F736
:102CA000A553525253A5F7A6A553535253A5F7F770
:102CB0005453A5535353F7EFA553A4535353F6A5B9
:102CC0009C5352529A52A4F69A5251515252A4A471
:102CD000A4A45253525253A4A45BA452A4A4A4A4E7
:102CE000A5A5A4A4A4A4A5535353539C5CA45353D7
:102CF000535353525253535253535353A452529B10
:102D0000A4A4A4529AA3A3A3A3A3A351525252A42E
:102D1000529B9BF053A49B52534952EB5252525236
:102D200052529AA3A4525152525252EC525B5252F6
:102D3000095252A352525108520051515B5209524A
:102D400051005251A3515000514851EB0508000564
:102D50000607080E0F10111218191A1B1C22232423
:102D600025262C2D2E2F3000363738393F40414252
:102D700043494A4B4C4D05080102030400090A0B64
:102D80000C0D13141516171D1E1F20212728292A84
:102D90002B31323334353A3B3C3D3E44454647487F
:102DA00000FF06015300C00000B0076400904C64AF
:102DB00000B1076400B207640C9047640C9049644A
:102DC0000C904764069053640C90536406905164D1
:102DD0000C9050640C904C640C904C640C904764C4
:102DE0000C9049640C904764069053640C905364B3
:102DF000069051640C9050640C904C640C904C64A0
:102E00000C9047640C9049640C904764069053649E
:102E10000C905364069051640C9050640C904C6478
:102E20000C904864009154641290566400914A6476
:102E300014904C64009158641A9047640C90476455
:102E40000C9053640C90536400914C64009247645E
:102E50000C9051640C9050640C9051640890506434
:102E6000129047640C9047640C9053640C90536428
:102E700000914E64009247640C9051640C90506431
:102E80000C90516406905064129047640C90476413
:102E90000C9053640C90536400914C64009249640C
:102EA0000C9051640C9050640C90516406905064E6
:102EB00012904C640C904C640C904E640C904F64D7
:102EC00000914864189053640C90516400914E64D2
:102ED00000924A64189053640C90536418905364A1
:102EE00000914C64009247640C9051640C905064C3
:102EF0000C90516406905064129047640C904764A3
:102F00000C9053640C90536400914E64009247649B
:102F10000C9051640C9050640C9051640690506475
:102F2000129047640C9047640C9053640C90536467
:102F300000914C64009249640C9051640C90506470
:102F40000C9051640690506412904C640C904C6448
:102F50000C904E640C904F64009148641890536438
:102F60000C90516400914E6400924A6418904F6432
:102F70000C904A6418904C64009147640092446439
:102F80003290476400914E6424904C640C904764E6
:102F900000914E6424904C640C904E640091476400
:102FA0000C904C640C904E640C904C640C904764F4
:102FB0003090496400914E6424904C640C904964B4
:102FC00000914E6424904C640C904E640C904C64C0
:102FD0000C904E640C904C640C90476430904764A5
:102FE00000914E6424904C640C90476400914E64B0
:102FF00024904C640C904E64009147640C904C6497
:103000000C904E640C904C640C9047643090496472
:1030100000914E6424904C640C90496400914E647D
:1030200024904C640C904E640C9047640C90476460
:103030000C9053640C9051640C904E640C904A6454
:103040001890536400915A64249058640C9053640F
:1030500000915A64249058640C905A64009153640F
:103060000C9058640C905A640C9058640C90536403
:103070003090556400915A64249058640C905564C3
:1030800000915A64249058640C905A640C905864CF
:103090000C905A640C9058640C90536430905364B4
:1030A00000915A64249058640C90536400915A64BF
:1030B000249058640C90536400915A640C905864A6
:1030C0000C905A640C9058640C9053643090556482
:1030D00000915A64249058640C90556400915A648D
:1030E000249058640C905A640C9053640C90536470
:1030F0000C905F640C905D640C905A640C90566464
:10310000249058640C9058640C9058640C90586447
:103110000C9058640C9058640C9058640690586455
:103120000C905364069058640C9058640C9058644A
:103130000C9058640C905864189053640690536433
:10314000069058640C9058640C9058640C90586425
:103150000C9058640C905C6412905864069058640B
:1031600006905864069058640C9058640C9058640B
:103170000C9058640C905A640C90586418905864E1
:1031800006905864069058640C9058640C905864EB
:103190000C905364069053640690586406905864EB
:1031A00006905864189058640690586406905864C5
:1031B0000C9058640C9058640C90586406905864B5
:1031C000069058640C905C6418905864069058649B
:1031D000069058640C9058640C9058640C905C6491
:1031E0000C90586406905864069058640690586491
:1031F00006905C6406905864149058640890536478
:103200000890586414905C64009158640092536470
:10321000169053640C905F640C905F640091586446
:10322000009253640C905D640C905C640C905D643F
:1032300006905C64129053640C9053640C905F642D
:103240000C905F6400915A64009253640C905D642A
:103250000C905C640C905D6406905C641290536406
:103260000C9053640C905F640C905F640091586400
:10327000009255640C905D640C905C640C905D64ED
:1032800006905C64129058640C9058640C905A64D8
:103290000C90546400915B6418905F640C905D64C2
:1032A00000915A640092566418905F640C905F64B9
:1032B00018905F6400915864009253640C905D64B0
:1032C0000C905C640C905D6406905C641290536496
:1032D0000C9053640C905F640C905F6400915A648E
:1032E000009253640C905D640C905C640C905D647F
:1032F00006905C64129053640C9053640C905F646D
:103300000C905F6400915864009255640C905D6469
:103310000C905C640C905D6406905C641290586440
:103320000C9058640C905A640C905B640091546447
:1033300018905F640C905D6400915A64009256642A
:1033400018905B640C9056641890586426905F64E3
:1033500006905F6406905F640C9058640C9058640B
:103360000C905F6406905F64069061640C905F64EB
:103370000C905D640C905C640C905C640C905A64DE
:103380000C9058640C905C64489058640C9058649D
:103390000C905A640C905A640C9058640C905A64C7
:1033A0000C905A64189058641890536406905364B3
:1033B000069053640C905C640C905C64269053649B
:1033C0000C9053640C9053640C9053640C905A64AA
:1033D0000C905A640C905A64189058640C90536482
:1033E0000C905A64189058640C9058643C9058643F
:1033F0000C905F640C905D640C905B640C905D6459
:1034000018905C640C9058643C904A640091566437
:103410000C904C64009153640092586460FF060164
:103420004500FF2F0000000076340000000000007F
:103430000076340000000000000076340000000038
:1034400002DA4F0000FE01FF0102C24C0000160329
:10345000170302B33B00000D110E1102BB3900002F
:10346000F601F701025A3600005F03600302903450
:103470000000C801C901000946000A50000200000E
:1034800007300000040106000000F808050000FFF6
:1034900001FD02FE01FEFF02F513E70B0FE216FD30
:1034A000FA0306F20DF9FF0103FAF8060A01FB140C
:1034B000F30CD83CB646038D5EC70515E8FC28D44E
:1034C0000BDC1623EB1BF150F1D118F9BE01000BF8
:1034D000301A1ACFD4CED51019572AC7E8DECCE55A
:1034E00027453EFEC7F5C2FD343529FBDCC1E8089F
:1034F00016341AEEE3C20AFD1A35F015EFC2FEF4D7
:103500001730FA0BF1DCF8F4FB111213F5FDFAFA9F
:1035100000030AF9FA1709FB00E906FBEC0516039C
:10352000FFEFEE05F0130A0012F0F40200090C00A0
:10353000F502F70511F5FEF2F2FC0D0FFE09F5F4A8
:10354000ECF714100E00F5F2EEF902180701FDF188
:10355000FEF207090FFBF6FE03030405FA00F8FD6F
:10356000F80E0B03F7F4F8FB00070DFCFFF2FEFA70
:10357000020D0E01F6F5F508010D0701FEF2F2FB52
:10358000081003FCFEF8F10307040302FEF5FBFD3F
:103590000CFF0203FAF7FC05FF040404FBF7FF0429
:1035A000FE0602FDFF01FDFF00FD0200FEFEFFFE24
:1035B00007FA0000FDFEFB07FD020104FCFCFFFE14
:1035C00002FE04FD0201FBFEFF0202FE0002FDFB03
:1035D000FF05FE000101FB00FFFB020003FE0301EB
:1035E000FCFBFE000104FB0500F90100FDFF0200E9
:1035F00004FCFB000201FE0202FEFAFF00FE0302D1
:103600000000FEFDFBFD020402FD0101F9FE0002C7
:10361000060300FDFCFAFE0205030000FDF8FA01B6
:10362000020603FFFEFCFE0003010302FBFE000096
:10363000FF0003FEFAFF01000000FE0001FD000292
:103640000000FDFC0300FE010000FDFCFF02000085
:1036500000FD01FFFC020300000004020107080551
:103660000508040605070506060605050505050502
:103670000604050405040502040203010301010117
:103680000000FE00FEFDFBFEFBF9FCFEFCFAFB0069
:10369000FEFDFEFDFCFCFF01FEFBFDFCFBF7FDFB60
:1036A000F6F5FBFEFBFCF9F5FBFFFF00F8FFFFFB67
:1036B000FAE7EE15120105060301050800000403F0
:1036C0000705080B070A0A040A0A090A060708047C
:1036D00003040101040704FF00FF01FDFDF8FBF6F0
:1036E000F6F8F4F6F4FCF8FCF1F9F6F6F2F9F9F173
:1036F000FBFC04F703F5F8EFF6F2F3EFEEF6F2F465
:10370000E8F9F4EBEC3832F4FC1300050F0108067D
:10371000110C110C0F120F0B090807070606040500
:10372000050E0703FD00FBFAF6F4FF02FDFFFCF4B3
:10373000F6EDF7F7F6FBFDF601FDF7FBFCFBFDFAF6
:10374000F4F4E9F0E7EAF9EDF2F6FCF8FEFD050025
:10375000F902F804EC01DFF9D3F64842181421F716
:103760001DF01AFC1209051C211819280F200C1D28
:1037700003160E0305FD01040A0702F8F800F6F926
:10378000FEFAF5F4EFEFEAE8EDF4F6FAF4F6FDEF01
:10379000FAF1F7F2F9EEF0EBF1E9EFEBE8DCE4F146
:1037A000E4E9E1EDEAFCF2020404F2FEE8FCE6E5FD
:1037B0002831132220091705141219112014211081
:1037C000211E221A211E1E180912FF1403120007BF
:1037D0000006F9FDF7F0F8EBF3F8F3EBEFEEEFEDA1
:1037E000F5EEF6ECEAF4FCF3F8F1EAF2EBF8F4FDAE
:1037F000F0FB000E06020EF4FAEEFEEFEFE7E5DD59
:10380000EFB8BA271F10283F122C16272821271699
:10381000231914131204120B0C0D0EFF12040905C8
:103820000301F6FBF3FEFA08070701FFF602F4FBBB
:1038300000FBF6FBF9F3F3F5FBF8F9FC0AFC02FCDC
:1038400008F506ECEFE5F5FFF9F8E9E9E1E9DAEE6C
:10385000E3F9F306060BFC3D48342F36311F250DE6
:103860001A0F1410130718131A1721090F06090944
:10387000060B04100007020900050101FC09020300
:1038800002060C0A06080A0406FB0202FFFE01FCFF
:10389000FBF6F2F9EEFFFDF7F609FD020C010BE96C
:1038A000FFD9F8D9EED4F3EBEB048DFB2C3E0648A0
:1038B000090B130813FF15062E112E1C2A0E2513B3
:1038C0001C24201D111A0008000E010609FF070123
:1038D000FA020500FA02F1EDF1F7F0FDFCF3FBF757
:1038E000FAF3F8F9F3E3E5EFEBE6DEE1D5E1DED557
:1038F000E0E6E1D9E0D9E6E0E1E3F8EFFFDC2E6CA9
:10390000300D2D3B0530051B0D15080502010C116E
:10391000211124161A101E0A18060F00FD09FBFCBF
:10392000F3FAECF4EAF7FBF9FCF3F1F7F6F6EFF74C
:10393000F7FAFDF9F2F5F2F9EFF0F8FE04FC03F105
:1039400004E5FEED04F4FAFFF7F6E8F1D9F1E4F846
:10395000E4FBD7383524042325092F092701210B3F
:10396000250718081007060A0100F205F602F302FF
:10397000EBFFF2F4ECF1F0EEEAE5EAE6ECEAEDE971
:10398000EEE7EFEFF2EDF1F0F2F1F1F3F3F1F2F334
:10399000F2F2F0F3F2F3F0F1F1F2F1F1F2F2F1F010
:1039A000F1F2F1F1F2F1F2F3F2F3F4F4F5F5F7F6E6
:1039B000F8F7F9F9FAFBFBFCFC00000CF1F134E438
:1039C000D03B05C3190CE427EBF82DD7DD55208D2E
:1039D000FF69DDC927FFF805FFEBFF4FDDC9F834AC
:1039E00034C3D01927F1EBFF2DF1DDF83434B5B530
:1039F0004841EBC9051327FFA8272DE4DD3BEBF871
:103A000034F1BCEB691994FF2013FFF1F1F10505C6
:103A100005EB05F105FFF119EBD71913F8C32720C2
:103A2000C305050505DD052DD0F8FF050C0CEBD70A
:103A3000200C13E4D72720E4D70C2DF1D71305F180
:103A400020FFD7F8200CF8D705270CF8E40C13FF5B
:103A500013FFF1F11919D7FF050CFF0519D713FF53
:103A6000FF34D0D73434D0D734FF13F8C32034D741
:103A7000EB1313FF05F1F8200505EB132DEBD0191F
:103A80003BD7D02D27C9F8130CEB05FFD7190CE451
:103A9000EB2DF8D720FFD0132D0CB5F13B13E4DD4F
:103AA000FF19F8F805E405F1F80CF805F8F105053B
:103AB000FFF8EB1313EB05F8FFFFFF05F8F819FF0C
:103AC000D70C27FFDD050CF1DD2D2DD7C9273BEBEA
:103AD000D0FF270CD0FF130CEBFF0CF80505FFF10E
:103AE0000C13F1F11319D7F1200CC91320E4F813CA
:103AF000F1051305F1E42720FFDDF1340CF1E4209A
:103B000020E4DD2027F1D01320FFE405FFFF05139B
:103B1000F8F105FF05FFF8F119FFE405050CF8E4DD
:103B2000FF20D7DD2013E4DD34E4D03B0CC9D034D2
:103B30002DC3DD1313F1F1FFF80C0CDD0C19F8DDCA
:103B40000C20F1EB050C0CFFF1F81319D7EB27193A
:103B5000D0F8200CEBF813FF05EB0C13FFDD0C196C
:103B6000F1EBFF27F8DD190CEB0505F8F119FFEB78
:103B70000505F805FFF10CF1DD0C190CF1F1130C42
:103B8000FF05050CEBF80C0CFFF8F80C05F8FF1915
:103B9000F8EB050C0CF1F105F80CF8F8F8FF0CFF48
:103BA000F1FFFFFF0CF8F113FFEBF80CF105F8F84B
:103BB0000000000000FFFFFFFEFD02FD0101F8FE16
:103BC000040107FDFE0500FBF800FB02030EF3F302
:103BD00008FD07FA0C06ECFB1405FB0507F3E301EF
:103BE00004000C0D06F8F7EEF40401080DF2FA0FCC
:103BF0000313F6FEF9EA0E120200EC0103E50E02D1
:103C0000F6080A0BEEE90EF4F90A110AE9F80DFCC0
:103C100008070610EFFC14F5E6FD0A04D6021102AF
:103C2000080B17EDDA06FBF40D0413F4F80E01147B
:103C300006F9FAF40706FCF3F30409EFFAF90308AE
:103C40000D11E1F70BF8F60916FBEDFF08020E0B5C
:103C500004FCF41806EBEBF307FEE6FF0908050F7A
:103C60001EDAEA0BF5FA001507F206060C06F20A50
:103C7000F2FB1CF9FFEBF00701EFE9031300130C53
:103C8000E5FE06FAFB0B03F9F50A06FD0F0100F04D
:103C90000A2FE9E5EEEB0AFAF8FF00150118FACA57
:103CA0001105F9FB061BF7F60C0608F206FBE01EF1
:103CB00027FEE7E6F90600E8F10F0D040FEEE81223
:103CC00007FDFE0000FBFC0BFF0D0A04EEE12E17C2
:103CD000F3F2E3F5FC0301EF0B0D0F0CCCFC12012A
:103CE00000EF1FFFF00F050BF50114D2ED2C1606A7
:103CF000EBF3FAF300E9F4140A0E05DE02070D06F1
:103D0000E809FBFC10F80E0A000ACD0526FA0FEFB1
:103D1000F2ECF01EEAEE180C11E2E319F90CFCFFCC
:103D200010ED0C0EF900000AFCCE0C260D06F2F583
:103D3000EBEE09EAF5180713EBEE13FF13EFF40AA5
:103D4000F712FDF9150106F4E0120910FFF5F0E78E
:103D500014FFDF031D04F4E80709FD0CFD02F6095A
:103D600017F4F00C0602E8E823120AFBFAE3E91460
:103D7000F4E606100908EB040A05FAF400FD130640
:103D8000F9090CFB07EAE9100F10F5E8E40C13E859
:103D9000F315FDF803F30EFC070CF8F40C1DF8EF17
:103DA000070AF901E60718040FF8D7E10F07ECF846
:103DB00016F90AFDF11CF601FEF00B0C0A03FC11CA
:103DC000F70303D2130A100FDFDFF710FAF40D0226
:103DD000E714F6FE0AFD18EFF01D0FF8FBFD16EDD7
:103DE00007F7E924F91B07CEE8F70DFCE81CFDFCFA
:103DF0000FE61CF3FE0CDE13130109FD0B00FA0F96
:103E0000D2FF14061BE9E9F8F708F9F60BED0B02EF
:103E1000EE11FA17F7E32A0AEF07F912F1050BD5AD
:103E20001A031712D4F8E7FA0FE40E08F811EE0D92
:103E3000F5FC10DD07220102080204F60DE7E51586
:103E40000A16F9F200E1FF0EE109FB0209E814008D
:103E50000BFADE2414EE0AFB0BF9FA18DA01101142
:103E60000AE205F3DE0FF8F50FFD0EF5FB03010383
:103E7000E7F7230FFB0EFA0AF6FFFFD80F1308012E
:103E8000F80EE8E816DEFC09000EE30E0F08F7E670
:103E90000C16FC0601FE04FA13E6ED1910F8F40600
:103EA00003DFF40FE70A070DFAE30E0D00EAF1173E
:103EB00019FD0EFD03F7FF05D6071706FE030AFBE3
:103EC000E1FEF4EF0B060EE6FE160BF9EEFA110D0D
:103ED000FF0AF505030FEDE41C0CF1FF0807EEE205
:103EE0000EEDFE0C11FBD80E1006EFEE0D1C0606B3
:103EF00006F8F70A06D9FC1A0BF3090B07E9E202E8
:103F0000EA060F08EEF4120D03EFEB0F1A0008F6A5
:103F1000FE0612F0E1150AF8F70D09FDE5FAF7F1D2
:103F20001018F4DE050A0DF5F0FF1A13050AEDF47A
:103F30000F07E0F31514F2FF100EF1D701EEFC129B
:103F40000CF1F2090A0FEFE4071B0B08F7FB021450
:103F5000F3E9090409ED090F02F0ECFBF00A1BF08C
:103F6000E603010FFBF5F910160C0CE7F50D09E659
:103F7000F10C18FDF01414F3DBF6F4FA0D12F2F55F
:103F8000030515EBEA0413110AFCF90012F9EBFC26
:103F9000FE19EDFE1408F9E7F3F60807FDFDFDFC38
:103FA0000A0003FEFC080503F6020FFFFC0600FFF3
:103FB000FCF902080202DFF210FF05F808FEE80330
:103FC0001103F7FF10FFE4FF0E070D0A06F5FDECE5
:103FD000EF0B000800E0FA160512F5FCF2E80A0AF9
:103FE0000905F7190BDA0F0D030D0A0DF1F007F3B0
:103FF000FE050AF8D7FA0EF904FDF900F0FE1C09D7
:10400000E7FD1005DB091506040A16F2DAFEFEF3D9
:104010000E0508F3010EFD0C00F0EEF0040F0D018B
:104020000C100AFD020305030104DCE5F9F9F50AA9
:1040300016F2F30003FD0503FAF6EB0E10FBFA048B
:104040000500ED010B0805081EDEE507F7FA030D74
:10405000FEFA06030801F10AEEF5210C1710090813
:1040600006EDE0F603F0090EE5FF08F9F503EFF0C1
:10407000F7070AFC090301E7FC20EBF80DFD0BFD37
:10408000F4030313FD18FFCC0EFFF5FB0011FAF843
:104090000E0C08EC0D01DA1318060D0F0A0B03E7DE
:1040A000F40CFAF403E1E00700FC02FBF8FAF80C68
:1040B0000206080CEFD91F06E8070507FD0206F9FE
:1040C0000E080D0ACBFC0EF800EF17FAF10E080FE0
:1040D000EF051BD6ED240A08041613000AF6F904AE
:1040E000F4F9F1D5FFFCFD03E705F7F70CFB0D062E
:1040F0000812CF0116E80AFA1301ED1EF3F7160AAB
:104100000BDEE71AF408F9FC0DEC0B1002FE000EB2
:1041100000D508180106092005F713F6F912F6F77D
:10412000D7E204ED07EBF307F30EFEFB150507F6E8
:10413000E70AF707020508F31204E9081DFCECE89A
:104140000906FC0AFF06F60714F7EF0A0600EEEE72
:104150001B0805021103FB1E0FFD0F09EDE6CFE959
:10416000F5F5F1F503001004F9050DFE07F0EC0874
:104170000207FCFEFC0A0CF0FC1F01F3FEEE0BFE36
:104180000305F7F70A18F8F0080CF600EE0512FE22
:104190000D09F9021B14050E20E9EADDCD01E8F353
:1041A000F5F00D090801F80FF80309D91005020C04
:1041B000EDFE0E0BF6F8160AE710EFF70BFD10EA0E
:1041C000F01C0CF7FBFE17EB05FAE924F7110CE5E0
:1041D0000C0E1309FC330AF7FEC5F5D2E5FAD81721
:1041E000150107FB0AFEF80FD70014FE0FEEFD15B0
:1041F0000300FAF914F108FFE70FFB15F1DE270AB7
:10420000EF05F914F1030DD81C050F08DB100A07A0
:104210000FF2211BFF0CDEF4DCE5FBCE00200300D7
:1042200001FE02F20BEAED1C0A09EFF818FDFF0689
:10423000E40D03070AE30FFE0BF8D81C11F10BFB8A
:104240000DFAFA17D7031410FEDF0E10FF0EFC0351
:104250001E0D19F7EFF1E4E2CDE71D12FD09F50A95
:10426000F3FCFDDA141806F6F61406FB0BDF010B5F
:104270000413E30A0B05F5E5060FFB0600FF06FC39
:1042800015E4EE1C14F3EC080F03030AF318181FCF
:1042900008E1FFF3DDCCDD0A16FF0CF8FFF4FC01AA
:1042A000D30A1F0CF7FE0C0A01FFE9F30E0B12EB09
:1042B000FE1209F5EDF60A09FD0AF5040512EADF1A
:1042C0001C10F3F7070F0A050CEE0A182007DE058D
:1042D000FFF2D8D5F710020403F1EF0703D3FB2157
:1042E00015F600070D07F6F6E90A140FF4FA1007A1
:1042F000FDEEE90913FB07F7FD0615F0DD130BFAD8
:10430000F4070C0C0A09F1F9192600EA0B01F8DA96
:10431000D7E6090D050CECEA0803D9ED161AFAFEEA
:104320000D1508F8FEE2FE1614F3F80C090BEDE685
:1043300004140202F8FC0117F5E706030BEF020E66
:104340000D0F08F6EF1326FEF00C0001E1D8DDF8A2
:104350000A0A0FECF30904DFE7071A06F50E150247
:104360000005E6F91018F4F80A0915E5E704100B42
:1043700002F9F90016FCEBF7FA15F1FD100E110B1E
:10438000FAEF0E1C01F30A0309EED6DEEBF9070A79
:10439000F0FE070FE4E3FF0F0CF00E11FD0A09EA2F
:1043A000F8091CF9F306081BE7EA040D0E03FAF9F5
:1043B000FB1109E8EDFB18F5F60E0C1112FBEF0DE1
:1043C000110CF506080B00DBDDE2E8FFFDF5080245
:1043D00017EFDFFB090EEE0C10FB100EECF7041BC1
:1043E00001EE070816EFEE020A0E08FAFAF80719AE
:1043F000E7E7FF16FCF0090C081601F30B0315F4B0
:10440000FD0D0A0FE7E2E9EBF4EEF10DFE19FADD1E
:10441000F9030FF20409FE0B11F2F704140CE8057E
:10442000090BFAF0FB0C0B0FFDFAFCFA1EE6E40494
:104430001008EE020C041406F406FB1BFAF60D0835
:1044400016F5E6EDF3E8E2EA09001507DDF9030ADF
:10445000FAFBFF050714F6F6080A13E8030902053C
:10446000F1F711080F02F900F41EE7E1090C0EF351
:10447000FD0A020C0AF404FC1602F30B061800E80D
:10448000F301E2DCE2FF020D13E1F6050501F3F8AA
:104490000B0315FAF20E0213EDFF07FA0EF3F113F8
:1044A0000B0C07F803F317EDDE080B12F8FA0803FC
:1044B0000510F4FE010F08F30804160AECF80DE3EA
:1044C000DBDAEF02051CE9F3070706ECF20C011337
:1044D00002EF100111F2FC05F60FF5EF1010090BB9
:1044E000FA04F70EF3DD030B12FAF90706FE12F7D2
:1044F000F5050B0DF20405120CF0FC16EDE2D9DD0A
:10450000FBFE1DF2F0070A09E9F10B020D08F00E9F
:10451000050EF6F801F610F7F00B12090EFC00FD7F
:1045200008F8DEFC0C14F9FA0706FC10FBED080A8B
:1045300010F4FE050F0AF0001AF9ECE4D2EDF71BB7
:10454000FCED050F0BE5F20700090DF3080B0EFD5E
:10455000F5FBF60EF6F206130B0E00FC0303FDE16D
:10456000F20B15F9FB0B05FC0FFFE3070F12F8FA2E
:10457000060D06F0031303F6F1D2DDF01404EB0090
:10458000170CE0F804FF040EF8FA111204F4F4FB1F
:104590000AF3F90010100C06F6070102E9E7091604
:1045A000F7FC0F03FF0D04DC001614FAF5090F01E8
:1045B000F309040703FBDCD1EB0A09EAF91D0BDE62
:1045C0000000FD030DFEEC14150DF3EB0406F1FFE6
:1045D000FD09140C08F2090005F2DE0813F8FE11BB
:1045E000FF040C03DBF6191402F20B11FAF70DF7B6
:1045F000080E03E7CBE9FC0BEBF22304E306FEFB1A
:10460000020C03E1141815F5E20CFFF302FC02168C
:104610000D0AF2020109FED80410F8FF11FB0A0D81
:1046200001E2E91C1208F20515F5FF0EEA0715076D
:10463000F4CBEBF108F1EA23FDEB09FDFA020A08DD
:10464000DC082017FADF0FFEF306FCFA171009F951
:10465000F3090808DEF514F7FF10FA0D0900F2DA85
:104660001B130BFBF819F4050AE406190BFFD3EA38
:10467000EBFAFBE416FFF509FFF8040908E2F42A57
:1046800010FFEA0205F00701F117130AFFE0120715
:104690000AF0E217F8FE0DFD0B0304FFD310190812
:1046A00008EF12FE0306E900180D04DFE2F4EB0543
:1046B000E9F90BF80603F5060807ECE22D0C01FDFD
:1046C000EE0EF00406ED12160E01DA100D0503D7FA
:1046D0001002F60B0202010906DBFC22040FF002B5
:1046E00011F903F5F7170F07F2DAFAE304F1DD1910
:1046F000FA000AF4060706F6DC1F0F010DE30DF8B9
:10470000FC0BEF071B0FFFE20115020EDBFF12EEA1
:104710000809F5020C08EAE825070DF9F11EF2FD7B
:1047200002F115120601D8F3E8FCF6CE1C04F60ED1
:10473000F9010804FDE204160512E70206F309F682
:10474000FD200EFBF5EE16070CE7ED1EEF010DEC5C
:10475000030D05FADF1B140701EA1CF5F709F10E3A
:10476000150409E3E4F6F6F1D01211F10802FB0991
:1047700003FFF1E9180E0DF3F50FF6FEFBFA1E0D1F
:10478000F708E60B1307F1E61CFCFA07F0FF0E032F
:1047900001E6081D0601EF0CFEFB01FB09160606EB
:1047A000F6D8F9F7E6DB0517FBFA08FC0308FCFC72
:1047B000DF0D1908FBF20B02F7F403160CF90DF0EC
:1047C000F8180CF1E81109FFF4FAFD0A08FCF7FAF1
:1047D000190FFEF5FD0007F6FF0C100D0103DCF2CA
:1047E000F6E0DFFE1604F70304FC0B01F9E1041AFE
:1047F0000BFBF20804FBEC090F05050AF9F2131391
:10480000F0E80D0D02EAFF01010FFBF9F8141202A6
:10481000F4F6000AF6FC0F0D0F0403E4F0EFE6DEF9
:10482000F91803FCFD09FA060BF2E3031510FAF27E
:104830000B01FFEA070DFF0C0AFBF30D17F5E10D65
:1048400011FFEBFF04FC0D01F6F712120BEFF2055E
:1048500005FDF80F0E0A0802EBF3E8EDDCF11E008F
:1048600000FB07FD0111F1E1031112FCF00FFFFE47
:10487000F20109FF0D0DFAF30C15FEDB0B18F7F131
:10488000FF04FD070AF4F0160E12EBEE0DFA04F920
:104890000713080B04EAF5E3F2E2E523FFFE01004B
:1048A000FF000FF8DA01150D03EB1200F600FAFF16
:1048B000060912F9F1130D09D80221EDF902FE01E2
:1048C0000110F8E51C0D13EFE714F10602FB150CBF
:1048D0000907E7F8E6EDEBDB2102FA0AFBFD050A22
:1048E000FED7FB1E0508EC0F04ED0DF8F40C0812C2
:1048F000FBED1A080CDDF924E8FF06F803000FFCB5
:10490000DD1D110FF5E415ED060AF412130709E990
:10491000F7ECE3F0D91907F810F9F9090600DBF212
:10492000240308F00B05E914FAE90F0C0DFEEA1C4C
:10493000080BE5F221E9010AF702030C00DB151A66
:104940000AF9E711EE040FF30B1A0707EFF1F5E090
:10495000F0DC0D0CFA11FBF50D04FEE4E92505056C
:10496000F70505EA16FCE20E120901EA190C07EF39
:10497000EE17ED030BF700070902DD082307F9EC3A
:104980000BF20211F5021D0905F5E8FEE1EDE2FF6B
:104990000FFE11FBF40D01FDEEE1220B03FDFF0400
:1049A000EC16FDE10B150703EB131203F9EC0AF209
:1049B000060BF9FF080705E0FA2A04FAF204F6FDEF
:1049C00013F8FD1D0B07F8E107E4EAE5F212001108
:1049D000FDF70AFB00F6DA1C120301F904F012FBE2
:1049E000E407140905ED0B170003EAFCFA060BFCBB
:1049F000FE090609E4EE2E01FDF7FD00F713FCF9B0
:104A0000190D0EF7D90BE7E9E9E815020E00FB04D2
:104A1000F505FDD712190405F304F807FBEB0113A4
:104A20000B09F0001DFE0CE8ED06010B00FD09036B
:104A30000EEAE42CFE01FCF40AF31001F713101146
:104A4000F6D90BF1E7EADE1308050700F8F60704CC
:104A5000D90124030AEF0105F4FFF5F915090EF752
:104A6000F2200013E5DF16FB0805FC09020EF4DE58
:104A70001E050500EC0EF70708F70C180AFBE1FC11
:104A8000FCE2EFDA0B16FA0E02EDFF0209E2EE2B62
:104A9000040DF0FB10E700FBF515080E02E8180BFB
:104AA00012E6D91C000008FF03050702E205130403
:104AB00006EA0805FC07FA071FFFFFF1EA08E5EE22
:104AC000D9FC21F90A01EC020007F1E3230E09F9F0
:104AD000F50DEDFCFBF90F0E070DEC031A09EBDAEF
:104AE000120FFA0306FE080308ECEB1D0507F0FAA7
:104AF00010FDFFFB0A1BFD0002E201ECE9E0EF21E3
:104B00000703FAF5FE0304F9E511190403F2FFFAAD
:104B1000FBF5FC0A12070DF5F52002F4E00219FA84
:104B20000007FE04060AEEE11F0807F9F012FFFD78
:104B3000F90E12FE0504E4FBF9E8E5E41913FBF6AF
:104B4000FEFB0106FBE90420000DF2F006F8F6FB7F
:104B50000810090DFBF11CFFFCEAF21DFC00050129
:104B6000FE090DEEE6160C0202ED0B05FCFD0A0730
:104B7000020900EFF502EBF1EA0717F7F900F90077
:104B800008FDF0FB17010AFCEE0AFCFAFB01070A1C
:104B900008FBF70C03FEF9F10E03FE02FFFB0A0C03
:104BA000F4F4070DFE03F6FE08FD0103FF0409FC03
:104BB000F7F805F6F6F6FC0EFAFCFFF9FF0AFFF32C
:104BC000FB0A060301F50401FDFCFE000907F9FDDF
:104BD0000106FFFDF80105FF00FEFA060CF8FC02D5
:104BE0000800FFFEF9040202FFFE0409FCF9FE00C2
:104BF000FDFAFCFA0400FEFDFAFE0701F4FE0404CF
:104C00000202FDFD0201FCFBFF0706F8FF000102A6
:104C1000FEFDFC0402FFFDFB0309FCFD030301FE96
:104C200000F9FF0403FEFE0406FDF801FEFF00FF8D
:104C3000FBFE02FFFCFBFE0502F7FF010103010181
:104C4000FB0104FCFBFF0505FAFF01FE0300FDFB71
:104C5000010500FDFD0106FFFE02FF0101FFFBFC57
:104C60000305FD00030400F900FEFD04FFFCFC0148
:104C700002FBFC000103FBFEFFFE040301FEFF0438
:104C8000FEFBFF0202FEFE01FE0103FDFB0002022D
:104C9000FDFF000102FD01FEFF03FFFCFD0104FF1B
:104CA00001030001FCFFFEFE0401FCFD0001FEFD0E
:104CB000FF0001FFFEFFFE020400FE000200FCFFF9
:104CC00000000101FEFEFEFCFCFCFCFCFCFCFCFE0A
:104CD00001FEFCFEFEFCFCFEFAF7F3EEE7EEF7F752
:104CE000010F18222937322D372B241D1D0FF5F304
:104CF000E9D9CDC1B39E999797ACC6D9EE13324A84
:104D000061726F665C4C39291B05EED6C1B3AAA748
:104D1000AEBACDDDEEFE0A18242D373E3B342D24ED
:104D20001D1B160F0AFEF5ECE9E7E9ECECE9E7E4F8
:104D3000E4E7EEF5FC010101FE0303080F11110F7A
:104D40000A0301010305050301FCFAF5F5F5F3F08B
:104D5000F0EEECEEF0F3F7FCFE0305080C0C0F117F
:104D6000110F0F0C0A0808050301FEFCFAF7F5F312
:104D7000F3F3F5F7FAFCFEFEFE0103080C1114161E
:104D8000140F0A03FCF7F3F0F3F5F7FC010101013E
:104D9000FEFAFAF7F5F5F5F5F5FAFC0103080A0C49
:104DA0000C0C0A0803FEFCFCFAFAFAFAF7F5F5F324
:104DB000F3F5FAFE03080C0F111114161613110C5B
:104DC0000805FEFCFCFCFCFCFCF7F5F5F5F3F5F53D
:104DD000F7FAFCFEFE0305080505050301FEFEFCCF
:104DE000FCFCFAFAF7F5F3F0EEEEEEF0F5FAFE055C
:104DF0000A0C0F0F0F0C0A0805030101FEFE01014A
:104E0000030305050301FEFEFCFCFCFE0103030396
:104E10000503030301FEFEFEFCFCFCFCFEFE01019B
:104E2000010101FEFCFAFAFAFAFAFAFCFEFE0101AF
:104E3000010101010101010103030303010101015A
:104E40000101FEFEFEFEFEFEFEFE01010101010368
:104E500001010101010101FE010101FEFEFEFEFC56
:104E6000FCFEFEFEFE01FEFEFEFEFEFEFEFE01FE5E
:104E70000101FEFEFE010101010101FEFCFCFEFE3E
:104E8000FEFE0101010101FEFEFEFEFE0101010127
:104E9000010101010101010101FEFEFEFE0101010E
:104EA00001010101010101FE01010101010101FEF8
:104EB000FEFEFEFEFEFEFEFE0101010101FEFEFE03
:104EC000FEFCFCFEFEFE010101010101FEFEFEFEF4
:104ED000FEFEFEFEFEFEFEFEFEFEFEFE01010101E6
:104EE0000101010101010101FEFEFEFEFE0101FEC4
:104EF000FEFEFEFEFEFEFEFEFEFEFEFEFEFE01FECF
:104F0000FE010101FEFEFEFEFEFCFEFCFEFEFEFEBC
:104F1000010101030303030101FEFEFEFEFEFE018B
:104F2000030305050301FEFCFAFAFAFCFEFEFEFE91
:104F3000FEFE010101010101030101010101010363
:104F400003030101FEFEFCFCFAFAFCFCFEFE01017B
:104F5000010303030303010101010101FEFEFEFE43
:104F600001010101FEFEFCFAFAFCFCFEFE0101015A
:104F700001010101010101010101FEFE0101010127
:104F80000101FEFEFEFCFCFCFCFEFE010101010134
:104F900001010101FEFEFEFEFEFEFEFE0101010119
:104FA00001FEFEFEFEFEFEFEFEFE0101010101010C
:104FB00001010101010101010101010101FEFE01E7
:104FC00001FEFEFEFEFEFEFEFEFE010101010103EA
:104FD0000101010101FEFEFE0000FEFE01010101D2
:104FE00001010101010101010101030303010101AB
:104FF000010101010101FFFEFCFCFAFCFFFE01FEC4
:105000000101010101030305070D0911050501F463
:10501000FAE1EADBDDE3D9E5D3D3D0D0EE092648C7
:10502000586D72726F563F11E7C6B1ADADB1B7BEE4
:10503000C2C8D0DFF005112433393B3535312D247A
:105040001605F2E5DDDDE1E5E7E5E5E5E7E7EAECB4
:10505000EEEEF0F4FA030D1A242D2D2820160D077C
:105060000501FAF4EEECEEF4FA010101FCFCFCFEA1
:10507000010101FE010105070B0B0B0B0B0B0B0BC9
:1050800009090503FEFAF8F6F4F4F2F2F0F0F2F290
:10509000F4F6F8FAFCFE01050709090907050505FC
:1050A00005050503FEFCFAF8F8F6F6F6F6F6F6F650
:1050B000F8FAFAFCFE0101030505070709090B0BC5
:1050C0000B0B0B0B0B0703FEFCF8F6F4F2F2F2F4F9
:1050D000F6FAFC01070B0D0F0F0F0D0B090503FF6F
:1050E000FCF8F6F2F2F0F0F0F0F0F2F4F6F8FAFC78
:1050F000FEFE010507090B0B0B0B0909070503034E
:1051000001FEFAF8F8F8F8FAFAFCFE0103050909BD
:105110000B0B0B0B09090907050301FEFCFAF8F854
:10512000F8F8FAFAFAFAFAFAFCFCFCFCFFFEFEFECA
:10513000FEFFFEFFFEFFFEFFFEFFFE01010101FE7E
:10514000FEFEFEFCFFFEFFFEFF0101010101010367
:1051500003030303050505030505030301FEFFFC27
:10516000FCFAFAFCFCFCFCFCFCFCFEFFFE0101016D
:1051700001010101FEFEFEFEFFFEFEFEFEFFFEFE41
:10518000FEFEFEFE0101010101010101010101011B
:1051900001010101FEFE01FEFEFEFEFEFEFFFEFF1E
:1051A000FEFEFEFEFFFEFFFEFE01FE01010101010B
:1051B000010101010101010101FEFEFEFEFEFE01F1
:1051C00001010101010103010101FEFFFEFCFCFCE4
:1051D000FCFCFEFEFEFEFFFE0000000000000000E2
:1051E00000000000000000000000000000000000BF
:1051F00000000000000000000000000000000000AF
:10520000000000000000000000000000000000009E
:10521000000000000000000000000000101818103E
:10522000000000182020202018001020FF2020203F
:105230002010182020202020201818202020202096
:1052400020181020202020202010001820202020AE
:105250001800000010181810000000000D0D0D0DB2
:105260000D0D00000D0F0F0F0F0F00000D0F0F0F92
:105270000F0F00000D0F0F0F0F0F00000D0F0F0F7E
:105280000F0F00000D0F0F0F170F00000D0F0F0F66
:105290000F0F00000D0F0F0F0F0F0D0D0D0D0D0D4A
:1052A0000D0D0F0F170F0F0F0F0F0F0F0F0F0F0F0A
:1052B0000F0F0F0F0F0F0F0F0F0F0F0F0F0F0F0FFE
:1052C0000F0F0F0F0F0F0F0F170F0F0F0F0F0F0FE6
:1052D0000F170F0F170F170F170F0D0D0D0D0D0DCA
:1052E0000D0D0F0F170F0F0F170D0F0F0F0F0F17BC
:1052F0000F15170F170F170F170D0F0F0F170F178A
:105300000D15170F1717171715000F170F1717176A
:105310001500171717171717150000000D0F0F0F9F
:105320000F0F00000D0F0F0F170F00000D0F0F0FC5
:105330000F170000150F170F170F00000D170F178D
:105340000F17000D15171717171700150F17171739
:10535000171700151717171717170F0F0F170F1716
:105360000F17170F1717171717170F170F171717ED
:1053700017171717171717171717171717171717BD
:10538000171F17171F171F171F1F17171717171F7D
:10539000171F1F171F171F1F1F1F0F17171717176D
:1053A000150017171F171F17150017171717171FA7
:1053B00015001F171F171F151500171F171F17158B
:1053C00000001F1F1F1F1F150000171F171F1F158D
:1053D00000001F1F1F1F27150000001517171717A4
:1053E000171F00151F171F171F1F00151717171F4F
:1053F000171F00151F171F1F1F1F0015171F171F2F
:105400001F1F00151F1F1F1F271F0015171F1F1FFE
:105410001F1F00151F1F271F271F171F171F171FCD
:105420001F1F1F1F1F1F1F1F271F171F171F1F1F94
:105430001F1F1F1F1F1F271F271F1F1F1F271F275C
:105440001F27271F271F271F27271F271F271F2724
:105450001F2727272727272727271F1F1F271F1D0E
:105460000000271F271F1D1D00001F271F271500D5
:105470000000272727271D1D1D1D1F27272727273A
:10548000272F27272F272F272F2727272727272F84
:10549000272F2F272F272F272F270000000000005E
:1054A00000000000000000000000000000000000FC
:1054B0000000251D251D251D2525272F272F272FDA
:1054C00025252F272F2F2F2F2500272F272F2F255B
:1054D00025002F2F2F2F3725000000151F271F27EE
:1054E0001F270015271F271F2727001D1F271F27DE
:1054F0001F27001D272727272727001D27272727A6
:105500002727001D27272F272F271D1D2727272F58
:10551000272F25272F272F272F271F272727272705
:10552000272727272F272F272F2727272727272FEB
:10553000272F2F272F272F272F2F272F272F272FB3
:105540002F2F2F272F2F2F2F2F2F272F272F2F2F83
:105550002F2F2F2F2F2F372F372F2727272F272F6B
:10556000272F2F272F2F2F2F2F2F272F272F2F2F6B
:105570002F2F2F2F2F2F2F2F372F2F2F2F2F2F2F33
:105580002F372F2F372F372F37372F2F2F372F37F3
:105590002F37372F372F373737372F2F2F2F2F25ED
:1055A00000002F2F372F2D2500002F372F372500F4
:1055B0000000372F37252D0000002F372F2D00003A
:1055C000000037372D2D0000000037372D00000078
:1055D0000000372D2D00000000001D27272F272F4A
:1055E000272F251D25252525252500000000000045
:1055F00000000000000000000000000000000000AB
:10560000000000000000000000000000000000009A
:10561000000000000000000000002F2F2F2F2F2F70
:105620002F3725252D252D2F373700000000253752
:105630002F37000000002D373737000000002537D6
:105640003737000000002D373F37000000002D37AE
:105650003737000000002D373F372F372F372F37D0
:1056600037373737373737373F37373737373737C2
:105670003737373737373F373F373737373F373F9A
:10568000372D3F373F3F3F3F3F2D373F373F373F76
:105690002D2D3F3F3F3F3F3F2D00372D00000000A5
:1056A00000002D2D0000000000002D000000000073
:1056B00000002D000000000000002D000000000090
:1056C00000000000000000000000000000000000DA
:1056D00000000000000000000000000000002D3F5E
:1056E000373F0000002D2D3F3F3F0000002D2D3F94
:1056F000373F0000002D3F3F3F3F0000002D3F3F60
:105700003F3F0000002D3F3F3F3F0000002D3F3F47
:105710003F3F0000002D3F3F3F3F373F3F3F3F2D82
:105720002D003F3F3F3F3F2D00003F3F3F3F2D2D8E
:1057300000003F3F3F3F2D0000003F3F3F2D2D0029
:1057400000003F3F3F2D000000003F3F3F2D000085
:1057500000003F3F2D2D000000000000002D3F3FC6
:105760003F3F0000002D3F3F3F3F0000002D3F3FE7
:105770003F3F00002D2D3F3F3F3F00002D2D3F3F7D
:105780003F3F00002D3F3F3F3F2D00002D3F3F3F5B
:105790003F2D00002D3F3F3F2D2D3F3F2D000000AE
:1057A00000003F2D2D00000000003F2D00000000F4
:1057B00000002D2D0000000000002D000000000062
:1057C00000002D00000000000000000000000000AC
:1057D0000000000000000000000000002D3F3F3FDF
:1057E0002D0000002D3F3F3F2D0000002D3F3F2D9D
:1057F0002D0000002D3F3F2D000000002D3F2D2DDE
:105800000000002D2D3F2D000000002D2D2D2D001E
:105810000000002D2D2D00000000040802030400EC
:105820000506070008090A0B0C0D0E0F10111213C4
:10583000001415000016170000180000BFBFBFFFBE
:10584000FFBFBFBFBFBFFFBFBFFFBFBFBFBFFFBF68
:10585000BFFFBFBFBFFFFFFFFFFFFFBFBFFFFFA433
:10586000FFA4FFBFBFFFA4FFA4FFFFBFBFFFFFFF59
:10587000FFFFFFBFBFBFBFBFBFBFBFBFBFBFBFBF78
:10588000FFFFBFBFBFBFBFFFBFBFFFBFBFBFBFFFE8
:10589000BFBFFFBFBFBFFFFFFFFFFFFFBFBFFFFFD8
:1058A000A4FFA4FFBFBFFFA4FFA4FFFFBFBFFFFF74
:1058B000FFFFFFFFBFBFBFBFBFBFBFBFBFBFBFBFF8
:1058C000BFBFBFBFBFBFFFBFFFFFFFBFBFFFBFBFA8
:1058D000FFFFBFBFBFFFBFBFFFBFFFBFBFFFBFFF18
:1058E000BFBFFFBFBFBFFFFFBFBFFFBFBFFFFFFF08
:1058F000BFFFBFBFBFBFBFBFBFBFBFBFBFBFBFBF78
:10590000BFBFBFBFBFBFBFFFBFFFFFFFBFBFFFBF67
:10591000BFFFFFBFBFBFFFBFBFFFBFFFBFBFFFBF17
:10592000FFBFBFFFBFBFBFFFFFBFBFFFBFBFFFFFC7
:10593000FFBFFFBFBFBFBFBFBFBFBFBFFFFFBFBF77
:10594000BFBFBFBFFF00FFBFBFBFBFBFFF0000FFA4
:10595000BFBFBFBFFF000000FFBFBFBFFF00000011
:1059600000FFBFBFFFFFFF00FFBFBFBFBFBFBFFF45
:1059700000FFBFBFBFBFBFBFFFBFBFBF0000000072
:105980000000000000000000000000000000000017
:10599000000000000050E8E8E8E8E8E850E8E8E83F
:1059A000E8E8E8E850E8E8E8E8E8E8E80050E8E88F
:1059B000E8E8E8E800000000000000000000000047
:1059C00000000000000000000000000000B6FFFF23
:1059D000B6000000B6FFFFFFFFB65000FFFFFFFF5D
:1059E000FFFFE850FFFFFFFFFFFFE850B6FFFFFF9C
:1059F000FFB6500000B6FFFFB60000000000000038
:105A0000000000000000000000000000000000B6E0
:105A1000FFFFB6000052B6FFFFFFFFB652A4FFFF24
:105A2000FFFFFFFF52A4FFFFFFFFFFFF0052B6FF83
:105A3000FFFFFFB6000000B6FFFFB6000000000049
:105A40000000000000000000000000000000000056
:105A500000000000A4A4A4A4A4A45200A4A4A4A48C
:105A6000A4A4A452A4A4A4A4A4A4A452A4A4A4A49A
:105A7000A4A452000000000000000000000000008C
:105A80000000000000000000000000000000000016
:105A90000000000000000000000000000000000006
:105AA00000000000000000000000000000000000F6
:105AB000000000000000000000000000BFBFBFBFEA
:105AC000BFBFBFBFBFBFBFBFBFBFBFBFBFBFBFBFE6
:105AD000BFBFBFBFBFBFBFBFBFBFBFBFBFBFBFBFD6
