:100000000C94344B0C949F4B0C949F4B0C949F4B33
:100010000C949F4B0C949F4B0C949F4B0C949F4BB8
:100020000C949F4B0C949F4B0C949F4B0C949F4BA8
:100030000C949F4B0C94404E0C947F4E0C94244C8B
:100040000C949F4B0C949F4B0C949F4B0C949F4B88
:100050000C949F4B0C949F4B0C949F4B0C949F4B78
:100060000C949F4B0C949F4B0C949F4B0C949F4B68
:10007000C159A959AB59AD59AF59B159B359B5592E
:10008000B759B959BB59BD59BF59015ADD59E05942
:10009000E359FE59FE59FE59FE59E659E959EC5902
:1000A000EF59FE59FE59FE59FE59F259F559F859C2
:1000B000FB59EA5DD45DD65DD85DEB5DEB5DEB5D34
:1000C000EB5DDA5DDC5DDE5DE05DEB5DEB5DEB5D28
:1000D000EB5DE25DE45DE65DE85DD25EDD5EE85E1F
:1000E000F35EFE5E165F2E5F465F5E5F815FA45F1C
:1000F000C75FEA5FFD5F10602360366059607C6017
:100100009F60C260D560E860FB600E613161546140
:1001100077619A61AD61C061D361E661F9610C629A
:100120002862446257626A627D629062C062F062D5
:100130002063506350636B6309640D64116415643C
:100140001A6420642A642D64A964B064B764BE6430
:1001500037643E6445644C648F648B648F648B6445
:1001600053645A6461646864BE64A964B064B7642B
:100170006F6476647D6484648B648F649664A16428
:10018000A964B064B764BE64C564DA64EE640365F0
:100190001C651C656D666D666D666D667266726661
:1001A000726672666B666B666B666B6675667566A5
:1001B000756675667A667A667A667A667F667F663F
:1001C0007F667F66826682668266826684668466F1
:1001D00084668466BE66C166C666CA664767476748
:1001E000476747674767476747674767E166EB6663
:1001F000CE66D86647674767476747671367F666FF
:10020000FF660967476747674767476731673B6727
:100210001E672867810045005DFF5E1027FF2AD218
:100220002B7D210C22FB850084008903888D8109A8
:100230006F02444247004501B083B300B10124B9C5
:1002400025578A1D8B035A550120010100380800EB
:10025000000000000000000000000000000000009E
:1002600000000000000081518451E051E551ED5142
:100270008C5191519651F65199519C519F51DA519F
:10028000DD51065200408891D2E4ADB5B6BEBFFF45
:1002900020464F5220454143482043495243554947
:1002A000542C20415252414E4745205448450A2083
:1002B000544F4B454E5320544F20464F524D2041F2
:1002C00020434F4E54494E554F55530A20504154E8
:1002D000485741592046524F4D2056434320544FD2
:1002E00020474E4420544841540A204C4947485422
:1002F00053205550205448452044455349474E41CA
:10030000544544204C4544532E0A0A20414C4C206D
:10031000544F4B454E53204D555354204245205584
:100320005345442C20414E440A2054484552452010
:1003300043414E204245204E4F204C4F4F534520C5
:10034000454E44532C0A20455843455054204F4EA7
:10035000205448452053574954434820414E442097
:10036000474E440A20544F4B454E532E2054484587
:1003700052452049532041204255494C544A494E48
:100380000A2052554C4520434845434B4552205482
:100390004F2048454C502E0A0A20544845204E4FC5
:1003A000524D414C2052554C4553204F4620454C10
:1003B000454354524943414C0A2043555252454EFD
:1003C0005420414E44204C454453204150504C59F8
:1003D0002E2041564F49440A204352454154494E2C
:1003E000472053484F525420434952435549545390
:1003F0002E00180E141C120E0B1504031C000B0B00
:100400001C0208110214081312020E0D061100132B
:10041000140B0013080E0D1213180B04111C120EEE
:100420000C04110F1419190B04121C01181C1604CA
:10043000081B0716001C0714000D061A080D1504EA
:100440000D1304031C01181C03001508031C1800DD
:100450000A0E12141904010E171C06000C041C05C8
:10046000091009101C0C0013131C0F000D03080DBC
:10047000001104150804161C040D03080D06070ED0
:10048000161C130E1C0F0B001812130011131C0660
:10049000000C040F1419190B04020811021408139C
:1004A000071F3F38C88C071F3F38C88C071F3F38CD
:1004B000C88CF009121B242D363F03040506061CC8
:1004C00006070804071C090A041C05030E0D1C0C72
:1004D0000E0B1C03040506061C06070804071C096E
:1004E0000A041C0B050C071C0D0E040D0F0E077CD7
:1004F000C6E27E060604007CC6C27E1AF2E2007CDA
:10050000C6027E02FEFC003C62027CC0E67C007CEF
:10051000FE1210181818003078ECE4FEC2C2007CFD
:10052000C6027E0606060070CCC2C2E2FE7C004611
:10053000CEDAF2E2C6460080C66E3838ECC6007CE1
:10054000C60202C6FE7C0010303030383838004019
:10055000C2C2C2E67E3C003C42998599423C007C86
:10056000E6C46018FC7E007CC2C2C2E2FE7C0000D1
:1005700000003E000000003078ECE4FEC2C2003E05
:1005800062327EE2F27E007CC60202C6FE7C003C45
:1005900062C2C2E2FE7E007CC6027E02FEFC007CDD
:1005A000C6027E060606007CC60202F2E6BC0042D7
:1005B000C2C2FEC2C6C60010303030383838000023
:1005C0000000F8000000006436163E76E6E60004FF
:1005D00006020282FE7C0062F6DECAC2C646004601
:1005E000CEDAF2E2C6460070CCC2C2E2FE7C007CEB
:1005F000C6E27E060604007CE2C2C27AE6DC007C2B
:10060000C6C27E1AF2E2003C62027CC0E67C007C3C
:10061000FE12101818180040C2C2C2E67E3C00400C
:10062000C2C2C46438180040C2D2DADAFE6C00805C
:10063000C66E3838ECC6008086CC78301C0C007C46
:10064000C060100CFE7C00000000000018180C00B8
:1006500000000000181800008040802080408000CA
:1006600092408000A1408000C0408020C040802097
:10067000F34080080042C0000642E0084042C04803
:100680006642C00080468002804680088046802006
:100690008046802A80468000C04680000448A02012
:1006A0000448A0081048E02A3448A008244AE00082
:1006B000A04A8002A04A8040A04A8042A14A80020B
:1006C000144CA000904C8008904C8040904C804886
:1006D000924C8000044EA000054EA000064EA020C3
:1006E000074EA0480252C00082528002825280000F
:1006F0008652800296528000815480088154800086
:1007000085548008A55480008058802080588040FF
:100710008058800084588000C0588040C4588008A9
:10072000005AC008015AC008105AC008515AC0489F
:10073000825E8020835E8002945E8008A45E8000DA
:10074000D15E800480C48004C0C4800C24C8A0048E
:10075000A0C8800404CCA0048000C1809000E10403
:10076000C000C184D900C1000002410100024180E3
:10077000040241400802410040024101400241C1DF
:100780004C02410080034101800341028003410487
:100790008003410780034100C00341040408E100D5
:1007A00010086101100861071C0861049808E10243
:1007B000140961009009614090096180900961C14C
:1007C00090096100880A4102880A4100890A414271
:1007D000890A4100040B4104040B4100050B4184CC
:1007E000050B41848110C1808012418280124180BA
:1007F0009012418294124140001341440013414041
:1008000010134144181341048018C1448018C104D6
:100810008418C144C418C100001A4101001A4100E3
:10082000011A4100101A4100401A4100511A41C1F9
:10083000801B4184811B4102941B4104981B414051
:10084000C41B4108002341084023410C18286108BB
:1008500010296108082A41108042C110C042C1120B
:100860001448E1109048E1509048E110044AE1102A
:10087000054AE1108150811085508150005241504D
:100880001052411900624119406241191068611902
:10089000007A413480C08134C0C0813404C8A1349E
:1008A00080D881882442C280A0428280805082A069
:1008B000805082880052C284A1C0828481D4820484
:1008C0009A00C3008A0243048210C300021243014B
:1008D000021243480A2243480233439092408390D5
:1008E000064243908252C3808000A4A08000A404EA
:1008F0008200E4B48300A4880002E40002026401E0
:10090000020264D9020264908202E4480203640095
:1009100082036402820364048203640782036484A2
:100920008104A4808006A4828006A4888006A4AAEC
:100930008006A400000824010008240C00082412EA
:1009400000082420000824210008243F0008240077
:100950008009240180092420800924408009248002
:10096000800924C180092410800A2450800A2410A0
:10097000810A2452810A2408000B2488000B2408D1
:10098000010B248C010B2404800C2444800C2404CF
:10099000820C244C820C2402000D2482000D2402BF
:1009A000020D2492020D2400000E2401000E2420CA
:1009B000000E2400010E2400020E2420030E240742
:1009C000800F242A800F2484810F2448820F2490D2
:1009D000820F249006226400062364000429242048
:1009E00004292410042A24480A42E4008A42E4022A
:1009F0008A42E40089448408894484008848A42009
:100A00008848A408084AE408094AE402084C240279
:100A10000A4C24010E6264010C6824210C68240134
:100A20000C6E24909280A4809084A410908824005E
:100A3000108C2401108C241214A8240214AD240458
:100A40009AC0840C18C8240498CCA484A100E58022
:100A5000A002E582A002E5402003454420034504AE
:100A6000A008E544A008E502200925822009250008
:100A7000200A6501200A65882422450C24282508BF
:100A8000242B6510A940855028424512284825107E
:100A9000A84AE5A0B080A5203088252130882520EF
:100AA000B0892580C84086A0C84086884842C68054
:100AB000C8468604E200C70062024701620247009E
:100AC000E2034700000000010000000001000000F8
:100AD000000100000000010101000101010100000E
:100AE00001010101000101010101010101010101F7
:100AF00001010101010101000101000000010101EA
:100B000000000101010000010101010101010101D9
:100B100001010101010101000100010100010000CA
:100B200001000101000100010101010101010101B8
:100B300001010101010101000001010100000101A9
:100B4000010000000101000001000101000100019D
:100B50000101010101010100000101010000010189
:100B6000010000000101000001010101000101017B
:100B70000100010101010001010101010101010068
:100B80000000000000000001000000000100000063
:100B9000000100000000010101000101010100004D
:100BA000010101010001010000010101000001013A
:100BB000010000000101000001010000000101012D
:100BC000000001010100000100010000010001011D
:100BD000000100000100010001000101000100000E
:100BE00001000101000100000101000000010101FC
:100BF00000000101010000000001010100000101ED
:100C000001000000010100000100010100010001DC
:100C100001010101010101000001010100000101C8
:100C200001000000010100000101010100010101BA
:100C300001000101010100010101010101010100A7
:100C40000000001A1B0B0A060908080904080A0913
:100C50000704050605071C070D0E050C060405070D
:100C60000A040C06211B2A272F051623241117140A
:100C70000B3F0A080E0C3C3D09262B0F00013213D6
:100C80002534333618101E3B353A22022804191F2A
:100C90003907291C0312151D38301A0D2C20312D4F
:100CA0002E3E371A232C153C16341235363A2414AE
:100CB00037190A2A01021C251F00083329051E3B8B
:100CC0000E27262F18111B3820170D2831320F3D03
:100CD0002B130322043021073F1D0B3E2D3909063B
:100CE0002E100C283927160E2B2A033C34182E35CB
:100CF000060D36333710213F151F1C121920090B22
:100D000024260F073D31112D140032220A2F2917F6
:100D100013053B2C02233E1A1D3A251E1B043001ED
:100D20000C08381804253B143D2A11060C0920052F
:100D30000F2115393C1F1D02103E072D01032B1BEF
:100D40003F350B24292728133A08381930371C005F
:100D5000320E2C1A1226343631332E0D1623171E5E
:100D60002F220AFFFF030303030303FFFF0000001A
:100D7000000000FF7F6060606060600303030303A6
:100D8000030303606060606060606003030303034B
:100D9000FFFF010000000000FFFF00606060606076
:100DA0007F7F000000183C3C1800003E63613F0D4F
:100DB0007971003E63013F017F7E001E31013E607C
:100DC000733E003E7F09080C0C0C003E630101637A
:100DD0007F3E00081818181C1C1C002061616173FC
:100DE0003F1E00317B6F656163230023676D79715E
:100DF00063230038666161717F3E00321B0B1F3B2D
:100E00007373001824247E566A7E000004010203D6
:100E1000080506070C090A0B100D0E0F141112130A
:100E2000181516171C191A1B201D1E1F22212423FA
:100E3000282526272C292A2B2E2D2F3031323334EA
:100E400035363738393A3B3C0002030401060708BF
:100E5000050A0B0C090E0F100D121314111617189A
:100E6000151A1B1C191E1F201D222124232627288A
:100E7000252A2B2C292E2D2F30313233343536377D
:100E800038393A3B3C7CC2C2C2E2FE7C00103838A2
:100E900038383810007CE6C46018FC7E007C603076
:100EA000FCC0FE7C0060706864FEFC60007E067C16
:100EB000C0C0FE7C003C62027EC2FE7C007CC2C0E0
:100EC00070181C1C007C663C7CC6FE7C007CE2C268
:100ED000FCC0C27C00030000000000150000000000
:100EE00000220000000000000000000000000500DB
:100EF000000000000000000000003A3A310000004D
:100F00000000000000000000000003282500000091
:100F10002E26000007000000000000000006000070
:100F20000000000000000000003A37000000000050
:100F3000000000000000000000000000000000258C
:100F40000000000100260000000000000406000070
:100F500000000000000000003337310000000000F6
:100F6000000000000000000028002500000029000B
:100F70000000000000000000000000040600000067
:100F80000000000000000033373031000000000096
:100F9000000000000000022929000000001F0000DE
:100FA0000000210000000000000004050600000011
:100FB0000000000000003A3A333531000000000024
:100FC0000005000300000000001D002F00000000CD
:100FD000000000000000000000060000000000000B
:100FE00000000000003C3A3A3A3A000000000000DD
:100FF0000D001D00000000000000001100000000B6
:1010000001000000000000000704020308010503BE
:101010000901020638383A3A353100000000200054
:1010200004000000000000000000000000080000B4
:1010300000000000000000040506000000000000A1
:101040000000003B3B3335000000000000000000C2
:101050000E0000001F000000000000000000000063
:101060000000000000000406000000000000000076
:1010700000003A3A3B303100000000000000000060
:101080000000022500000000000000000000000039
:1010900000001F0000050600000000000000000026
:1010A000003A3B3818310000000000000000210029
:1010B000002C0000000000080000000000000000FC
:1010C0000000000005060000000000000000000015
:1010D0003A3A353730000000000000002F000022AF
:1010E00000000000000025000000000000000000DB
:1010F0000000000506000000000000000000003AAB
:101100003B353730310000000000002000000000B7
:1011100000170000000000000000000000000000B8
:101120000000050600000000000000000000383B41
:101130003A3A3031000000000000000000000000DA
:101140000000000000250000120031000027000010
:1011500000070402030801050309010206383833B9
:1011600035373000000000000003000000370000A9
:1011700000000000000006172A000027210F0000D1
:101180000102060000000000000000003B3A3A3A6D
:10119000000000000000000000000000000000004F
:1011A000112D0E00000000000000000000000007EC
:1011B00001020308010506090405033A3A353730F0
:1011C00031000000000000003525002D002F002711
:1011D0000500000000000000000000000000040501
:1011E000060000000000000000003B3A33373000EA
:1011F000000000002F0006000000000000000012A8
:101200000000000000370000010000000007040596
:101210000308010503090105063B3B3A3A33350053
:1012200000000000001D0000000800330000000066
:10123000000000000000000000010000040506009E
:1012400000000000000000003B3C3A3A3A35000044
:10125000000000000000002C2500000000390025DF
:10126000000037000000000000000004060000003D
:10127000000000000000003A383330310000000068
:101280000000000000000020170000003A003A3083
:10129000000000000000080000000402030000003D
:1012A0000000000000003A3A3B3B33000000000021
:1012B0000000000000000000000000250000000009
:1012C00000000700000021040004050600000000E3
:1012D00000000000003B3B3C0D181D00000000001A
:1012E00000060003000000200000003B000000009A
:1012F00027000000000000000105030000000000BE
:10130000000000003A3B3C333500000000000000C4
:10131000000000000500000000002300002700007E
:101320003A0000003000000400000000000000004F
:10133000000000383B3C3A3A3A33000000000025F8
:101340000000033533000000000000000000000032
:101350000000000000000405000000000000000084
:101360000000383B3A3A3A3100000000000000002B
:101370000000000006000D00002C000039380000BD
:101380000000000000040600000000000000000053
:10139000003A3A3A3A3730000000000000280000D6
:1013A000003A113B00070000000000000030000080
:1013B0000000000007040000080400000904000009
:1013C0003C3A3A3B330000000000000020000000DF
:1013D0000000220000000039000007003A18000059
:1013E0002F0000050600000000000000000000388B
:1013F0003A3A3A3B3B300000000000000000000099
:1014000000000000000020000000000000001000AC
:1014100000000405060000000000000000003A384B
:101420003B353031000000000006000000000000E5
:10143000000000001F002F0000000000000000005E
:10144000000405060000000000000000003B3C3ADC
:101450003A33353000000000000000000038000181
:101460000000002F0000000000000000000000004D
:101470000405060000000000000000003A3B333580
:10148000373100000000000000000030003A00008A
:10149000000000002F00003A0025000000000004BA
:1014A0000600000000000000000000383B39333720
:1014B000310000000000000500002C0000000022A8
:1014C000002F00001F0000000000000000000405C5
:1014D000060000000000000000003B3C3A333530BD
:1014E00000000000002F2800300000000000000075
:1014F000000000002721260000000000000405066F
:101500000000000000000000003B3B3C3335373159
:101510000000000000292100000000003031002FF1
:1015200000000000000000000000000004050000B2
:1015300000000000000000003C3A3A3A3A3A3335E5
:101540000000000000000000000000003700000064
:10155000000000070000000000000004060000007A
:10156000000000000000003A3A3B33300000000069
:101570000000002F000000003A00000000063A18AA
:101580000000003B260000000000040203000000F1
:101590000000000000003A3B33373000000000003C
:1015A00000000000000000020000000000003331D5
:1015B00035000000000000000007040503080105D5
:1015C00003090105063A3A3B3B37340000000000AE
:1015D000003A000000380000003A0000000000005F
:1015E0002704001F0700000004050600000000009B
:1015F00000000000393A3B3B333500000000003A60
:10160000003000000000000000002D00000000116C
:101610003A00000000000007010203080105030969
:10162000040206383B33353731000000000000006B
:101630000000000033003A0000390000000037319C
:101640002200000000000403000000000000000071
:1016500000003C3B3B3A3A30000000000000000034
:10166000000000000000000010000000000000006A
:10167000002B0037000405060000000000000000F9
:1016800000383B3A3A3530310000000000000000DD
:1016900000002F00000000000000003500000000E6
:1016A000003A0000070102030801050609040503CA
:1016B0003C3A3337303134000000000000000000B5
:1016C0002B00000005001800000000003B00000097
:1016D0000000300402060000000000000000003896
:1016E0003C3A3A3A3A33370000000000000000006C
:1016F000000000000000000028002D3A3000080023
:1017000000000704030008040600090103003B3A37
:101710003A3A3337340000000229000000282A003A
:101720000000000039260000002600000000000034
:10173000000405060000000000000000003A3A3CEA
:10174000333537310000000000000000003A393323
:10175000000000000000003A000007000000000048
:101760000105000000000000000000003C3A3B3B87
:101770003530000000000229000000282B00000086
:1017800000003926000000260000000000000004D0
:1017900005060000000000000000003C3A3A333526
:1017A00037310000000000000000000000000000D1
:1017B0000000000028002D0030270800000007046A
:1017C000030008040600090103003B3A3A3A3337A4
:1017D000340000000000283100000000000002007A
:1017E00000003A000027000000000000000701058B
:1017F0000608010506090405033B3B393C33353730
:10180000340000000000000000000005000000009F
:10181000000000340000000037000000070402034D
:101820000804050309040206383B3B3A3A3A3335CB
:10183000300000000000000000003800003A3A3A92
:101840000000003A383300000000000701020608DB
:10185000010206090405063B35373031340000002B
:101860000000310000003A003A00000020000000B3
:1018700000003A0000000000000001050600000022
:10188000000000000000383C3B3B333530000000D6
:101890000000000000002F000000000000250000F4
:1018A00000000000300000000007040503080402E7
:1018B00006090402033B3838333537313400000061
:1018C00000280000000000002500000015000000B6
:1018D00011000000000100000704050308040503CF
:1018E00009010206383C3B3B3A3A3A3337310000B3
:1018F0000000000000001D18000000000000220091
:101900003000001000000004050600000000000088
:1019100000000038393B3B3A3A3A3A3A310000216C
:101920000000000000000001002A35000000000057
:101930000700000000000701050308040206090172
:101940000206383B3A3A3A3A333734000000000096
:101950002F000000300000003A00220006000000C6
:10196000000000000005060000000000000000006C
:101970000038393B3B3A3A3A353700000000000066
:1019800000003A0E000000000000002F00000000E0
:10199000000008000704060008010600090106000F
:1019A0003C3B3B3A3A373034000000000000000076
:1019B00000002500353A00001D0000000000000076
:1019C00000000004050600000000000000000038D0
:1019D0003B3C3A3A3A33303100F0F0F0F0F0F0F0BE
:1019E000F0F0F0F0F0F0F0F0F0F0F0F0F0F0F0F0F7
:1019F000F0F0F0F0F0F0F0F0F0F0F0F0F0F0F0F0E7
:101A0000F0F0F0F0F0F0F0F0F0F0F0F0F0F0F0F0D6
:101A1000F0F0F0F0F0F0F0F0F0F0F0F0F0F0F0F0C6
:101A2000F0F0F0F0F0F0F0F0F0F0F0F0F0F0F0F0B6
:101A3000F0F0F0F0F0F0F0F0F0F0F0F0F0F0F0F0A6
:101A4000F0F0F0F0F0F0F0F0F0F0F0F0F0F0F0F096
:101A500051F0F0F0F0F0A25148F0F0F0F0F0F0F0BA
:101A6000F0F0F0F0F0F0F0F0F0F0F0F0F0F0F0F076
:101A7000F0F0F0F0F0F0EAA2A2F0F0A1A3515100D2
:101A800048A25008520000520151004A000153017F
:101A9000015201025201005201F0F0F0F0F0F0F0BA
:101AA000F0F0F0F0F0F0F0F0F0F0F0F0F0F0F0F036
:101AB000F099519A5199A2EBF00052004900514916
:101AC00051004A004A000001000101520101520187
:101AD000525200090052000052F0F0F0F0F0F0F025
:101AE000F0F0F0F0F0F0F0F0F0F0F0F0F0F0F0F0F6
:101AF000F0F0F0F0F0F0F0F0F099EAF0F0F0F0F043
:101B0000F0005199EAF0F0F0F049005151EBF0F09B
:101B1000F00152005150A2F0F0F0F0F0F0F0F0F0CF
:101B2000F0F0F0F0F0F0F0F0F0F0F0F0F0F0F0F0B5
:101B3000A2F0F0F0F0EB999951F0F0EBEB51004985
:101B400000F0A2995148004901EB51480051005260
:101B5000015150510052000052F0F0F0F0F0F0F05E
:101B6000F0F0F0F0F0F0F0F0F0A2A250505051A2DE
:101B70009800510009510000520052000109015221
:101B800001000152015201010109090800520052ED
:101B9000010009520052005201F0F0F0F0F0F0F0B4
:101BA000F0F0F0F0F0F0F0F0F0A2EAF0F0F0F0F089
:101BB000F000515199EBF0F0F04A0049005151EB1F
:101BC000EB010101490000519952520009510900ED
:101BD000510001090000090000F0F0F0F0F0F0F011
:101BE000F0F0F0F0F0F0F0F0F0F0F0F0F0F0F0F0F5
:101BF000F0F0F0F0F0F0F0F0F0F0F0F0F0F0F0F0E5
:101C0000F0EBF0F0F0F0F0F0F099EBF0F0F0F0F035
:101C1000F05150EBF0F0F0F0F0F0F0F0F09A00003E
:101C20004AF0F0F0A348520152F0F0A30001015233
:101C300000F0A2510052005201F0A2000009520926
:101C400052F050520152095252A2510001525252C6
:101C500052A249520A520A5201010152015200098C
:101C60000000520000095200005208515200520078
:101C70000909010909520152010152530152530944
:101C8000010109530952535201535252535209014F
:101C90005352010953525309015200520009520193
:101CA0000052015201520152090152010152010137
:101CB000520053520153530152530A01530909531D
:101CC00009520A52530A53535301535309530909F2
:101CD000010901530153535201520052005151A3C3
:101CE000F000520101520051A401015301020152BE
:101CF000520153010152010152520152015352004B
:101D00000001525301015201525301524A01524AF9
:101D1000005201015301015201F0F0F0F0F0F0F037
:101D2000F0F0F0F0F0F0F0F0F0F0F0F0F0F0F0F0B3
:101D3000F0A4F0F0F0F0F0F0F052A4F0F0F0F0F0D9
:101D4000F00052F0F0F0F0F0F05200A3F0F0F0F0FC
:101D5000F0520152F0F0F0F0F0F0F0F0F0F0F0F0AE
:101D600051F0F0F0F0F0F09A52F0F0F0F0F0F051A5
:101D700000F0F0F0F0F0515100F0F0F0F0EA51090D
:101D800000F0F0F0EAA2510952F0F0F0EA510052EE
:101D900000F0F0F098510001535100005200000192
:101DA0005201095200530109535201530101535387
:101DB000525201520952520152535201535353533A
:101DC00052015201015209530A01015253015301B8
:101DD00052520101015201530101520952090052AC
:101DE00000015201015201090153530153015201F3
:101DF000520A5253520153015253530A0152525341
:101E00000152535201015253520A53015353525338
:101E1000525201530901530153525200525200527F
:101E20000001520100010101010152015201520160
:101E30000101530101014A52015252015201520162
:101E40004A5353015201520153520152530153520A
:101E5000015253010952525309525151F0F0F0F01E
:101E6000F0520051A3F0F0F0F04A004952A4F0F013
:101E7000F05200490052F0F0F00101520152A4F07A
:101E8000F00153010152A4F0F0095300520152F045
:101E9000F0520952090052F0F0500053535352527D
:101EA0005351520152530A52535100535309015294
:101EB000015152010A530953535100520901520171
:101EC00053510053090A0952535100520109015359
:101ED0005351510101530953A5095352095352015A
:101EE000530101535201520A010152095253010197
:101EF00053535352015252530153530953010A0190
:101F000053A553525252015301F753520A525301EF
:101F100053F753530953534A5301535C520A53091D
:101F2000535352A5A5520A53010153A5AE53525320
:101F3000090A53A5F7A55353095253A5F7ADAD535D
:101F4000535353AEF7F7ADA5535353F7A5F7A5F683
:101F5000A55353F7AEF7AEADF60953015301530144
:101F600053520153010A4A0153530152535301532F
:101F700001520A01015353024A0953535353530167
:101F80005352015302535353025B5352534B544B1E
:101F900002A55253535354544B014952A3F0F0F04D
:101FA000F001010152F0F0F0F053010100A4F0F053
:101FB000F05353534A53F0F0F04B4B0152A4F0F05E
:101FC000F05353539B9BF0F0F0534B5351ECF0F014
:101FD000F0A64B53A3F0F0F0F0F0F0EA51005201FC
:101FE00052F0F3A24800520152F0F3A20052010154
:101FF00052F3EA510001525252F3A2514A090152DE
:1020000000F499510152525252F3A352520153011A
:1020100000F350A4520153520101520952015309D5
:1020200053010153015201015201520101095301AF
:1020300053010053520101525301520152530953AB
:10204000A50153525353535BF65209535B0953A5F1
:10205000AE5201525C535CAEAD0A52A552015253CE
:102060000952A5A553010953525CF6AD53525301D1
:1020700053F6F7A55309530953F7ADA55201530978
:1020800052F7ADA55309535301F6A55B53530153C2
:1020900053F7F7A4525353530101530153015352C1
:1020A00053015201095309535209015352535253D8
:1020B0000901090A52530953015352535BA5525364
:1020C00053090152A5A4530953535352A5F6535330
:1020D00053535253A5F7A54A0A095209520952A46B
:1020E000F0015201520152A4F053014A01534AA592
:1020F000F0530153010152A4F0015301530052A4C3
:10210000F0095201520051A3F0095309520052EA5A
:10211000F0520153524949A3F051005201530A535E
:10212000AE51510152010AA5F7A24952535353A58A
:10213000F7A251010A5253A5A5A2515253535CA5CF
:102140005CF051015353535353F09952535353532B
:1021500053F0A35253A5539BA5A5A5520A5B535315
:1021600053AEA5520A53534B53F7A55253530A5338
:10217000A5A5A50A53535454A501095354540A5410
:102180005C53520A5354545C54535B535454540B91
:102190005CF7AE5B5C545C54A553A5F7FFADF6A5A8
:1021A000A454A5A5A5A509010954A5A5A5A4090997
:1021B0000A5453A5F7A5535B125453A5F6F6A45C35
:1021C0005CA5A59CF7FFF6B6B6A5F7A5A5F6FFFF9B
:1021D000B7A5F7F7A4A5FFADFF5352530153545DC4
:1021E0005401010153535454540A53530153A6A6A6
:1021F000540A5BAD5353A5A655655CAEA55CA6A677
:10220000A6B7B6FF5BA5AEA6A6B7B6AEA5F7AEA6B7
:10221000A6B6AE5BAEF7F7AFA6A6545352F0F0F0F9
:10222000F054A64BA3F0F0F0F0A65D5452F0F0F09D
:10223000F054A654A4F0F0F0F0A754549BF0F0F042
:10224000F0A6559DA4ECF0F0F0A654A5A4EDEBF09B
:10225000F09E54A6F0ECF4F0F0F3A2A45253015314
:1022600001F49AA353534A5301F0A39B534A535387
:1022700001F0EBA453534B5301F0EB9AA44A54548E
:1022800002F0F09BA44A535353F0F0EB9B53544C91
:102290004BF0F0F09B9B5454024A5352535353A4B7
:1022A000A501534A5353530153535353A45353015A
:1022B0000A53535C5C5C5C5B0A0A5CAE65B66565A0
:1022C0005C5353AEAEB6B7B6B653A55CAEB7B6B7B1
:1022D000FF539DA55CAEAEF6AEF6A55353535353D4
:1022E0005353A452530A530A0A53A55C53535453ED
:1022F000535CAD5C0A53535453AEAEA553534B5489
:102300009DFFADA554545353A5F7F75C535D545C42
:10231000AEADA5A55C5D5CA5AE5353A4ADF6A50A14
:10232000535353ADF7AEAD53525C535CADF6F6A5C7
:102330005354535309535B525353530A01095200E8
:1023400053545C0A0A535B5201AEAE5C5C5BAD5306
:1023500052AEB7B7B6B7FFAD53015301535249A3BD
:10236000F00A5353530152A3F053025353534AA359
:10237000F0540254530153A3F0535454535352A3F3
:10238000F0025453540152A3F05454A553A452EBF9
:10239000F05354A59BA49BF0F0F0A2525353A553C5
:1023A000A5F0F0525353A501A5F0F05353545353E5
:1023B00052F0F09B5353545301F0F09CA554A54B9D
:1023C0000AF0F0A3A553544B53F0F0A3F0F0534B95
:1023D0004BF0F0A3F0F0F0534CF6F7FFAE5C545C1A
:1023E000A5F7FFAEAEA65CA5AEA5A5AEAEAEA5A503
:1023F000F7A4A5A4A5AEA5ADF7A5A5F6F7F7F7F741
:10240000FF53A5F7F7FFF7FFF74B53AEF7F7AEF71C
:10241000F74B4C53AEF6F7FFF7F7F7FFF6ADA5AD68
:102420005CF6AEF7FFF6F6F6F6F7FFF7FFAEF7F657
:10243000F6F7FFF7FFF7FFF7FFF7FFF7FFAEF7F746
:10244000F7ADF7FFF7F7FFF7F7FFF7F6F7F7F7F74F
:10245000F7F7AEF7FFF7AEF7AFADADF6F7AEA6A65E
:10246000A6F7F6F6F7F7A5AFA6F6F7F6F7F75CA628
:10247000AFF7FFF7F79D545DA7F7F6F7A55454554E
:10248000A7AEF7A6534B9E5DA7F7A5534B5354A693
:10249000A7A55C534A53535CA65D54A5F0A3EAF08C
:1024A000F05CA6A5F0F0F0F0F05DA5A4F0F0F0F07F
:1024B000F05DA5F0F0F0F0F0F05DA5A3F0F0F0F025
:1024C000F0A6A5ECF0F0F0F0F05DA5F0F0F0F0F083
:1024D000F0A6EEECF0F0F0F0F0F0F0EBEC9B5354E3
:1024E00054F0F0F0F0A4545454F0F0F0EBECA45499
:1024F00054F0F0F0F0F09C544CF0F0F0F0F0A454F4
:102500004DF0F0F0F0F0A49D9EF0F0F0F0F0F0A5AA
:102510009EF0F0F0F0F0A49C9D53A5A5F7A4A5A40F
:10252000A554A6F7F7F7F6F7F7A6A6F7F7F6FFF71D
:10253000F754A6A5AEF7F6FFF74C4C54F7F6F7FFA5
:10254000F74D9E5453F7ADF7F74C9E4C535CA5FFE7
:10255000F79D9D544B5253A5AEA4F6A55C54A6A579
:10256000AEFFF7AEAEA6F7A5A5F7F7F7AEAEF7F755
:10257000A5F7F7FFAEAEF7F7F7AEA5A5AEFFF7F7F5
:10258000F7F7AEA5A5A6A5F6F7F7AEF7F7F7F7F7B5
:10259000F7F7F7AEF7F7F7F6F6FFAEB7AEFFF7A52A
:1025A00053AEFFFFB7AEA5A5A5A5A5AD5BA55CF78E
:1025B000A6F6AEF6ADAEAEA65CF7F7F7FFAEAE543C
:1025C000A5F6F7F7F7AFA65CA5FFFFAFA6AFA6A5E8
:1025D000A4F7A55C5DA6A5A5F05DA5A5A4A49AF0A9
:1025E000F0A6A5A4EDF59AF0F0A5A5A3ECECA3EB5D
:1025F000F0A5F0A3F0EB9AEBF0ADF0EBF0ECA3EB71
:10260000F0F0F0F0F0F0ECECF0F0F0F0F0F0F0EBD7
:10261000F0F0F0F0F0F0F0F0F0F0F0F0F0F0F09C0E
:102620009DF0F0F0F0F0F0A44CF0F0F0F0F0F0F0ED
:102630004CF0F0F0F0F0F0F09DF0F0F0F0F0F0A5DC
:1026400054F0F0F0F0A3A49C54F0F0F0F09B539DF4
:102650009DF0F0F051529B539D4C5453A5A5A5AD50
:10266000F79E9EA5A5A453535B4C9EA5EEA49B5339
:10267000534C9DEFEE9C5352539D9D549C539B5342
:1026800053A59D4B534A534B53A59D53535353014D
:102690005353A4A49B52534A53F6F7AEF7F7AEA692
:1026A000A6A5F7A6AFA6AFA65D535CA5AEA75DA78E
:1026B000A7535CA6AF5DAFAFA753A6AEA6AFAFA7BB
:1026C000AF53A6F7AFA6AFAFA753AEF7A6AEA6AF70
:1026D000F753AEF7AEF7AEAFAFA65309525253530E
:1026E000A5AE53535252525C5DAF5C534A525253A3
:1026F00054A6A5535352535C54AFA653534A530A9E
:102700005DAEAEA4525253535DAFF7A55252095C71
:1027100013AEAEAD5B525353545CA4F0F0F0F0F046
:10272000F0A5A5F0F0F0F0F0F05C53A3F0F0F0F0BD
:10273000F05D53A4EAF0F0F0F0555C52F0F0F0F0E8
:10274000F00B5CA3F0F0F0F0F0545B52F0F0F0F01E
:10275000F05CA452F0F0F0F0F09D9D9D530A53AE52
:10276000A6F09B9C535353A6A6F0A49B53535CAE78
:10277000AFF0EB52A453A5A6A6F0F49A5253AEAF15
:10278000A6F0F0A39B53A6AEF7F0EC9A52A5A5F7DE
:10279000AFF09B4952A5F7AEAEAFF7AFA6F7F7AED5
:1027A000A4A6A6A6AFA65C5B5BA7AFA6AFA65C532C
:1027B00052AFA7AFAFAFAE5C52AFA6AFAEAFA5A55D
:1027C00053AFAFA6AFF7AE5353F7AFAEAEF7AEA56C
:1027D000A4AEA6AFAEF7F7A5A45B5C535CA6A5A418
:1027E000F009535C535CA5EDF05B535C5353A4A418
:1027F000F552535CA55C53A4A4535353535C530A42
:102800005C53525353545C545352A45352530A537F
:102810005CA4A4A45252520953F0F0F0F0F0F0F08E
:10282000F0F0F0F0F0F0F0F0F0F0F0F0F0F0F0F0A8
:10283000F0ECEBF0F0F0F0F0F05B9BF0F0F0F0F08B
:10284000F05C5352F0F0F0F0F0539C529AF0F0F03C
:10285000F0535252A49AEBF0F0F0F0A2A3A49C53D0
:1028600053F0F05252A4A49B4AF0EB525353A4539A
:1028700052F09A4A535353A452F0A34A530153526D
:1028800052F09A534B0A015253F09A53530153A4F6
:1028900052F0A34A530A52520153A45252524A537D
:1028A0005352525A525252535352525252525353FB
:1028B00053A452520953535353529B525209535CDF
:1028C000535252525352535C535253525C5B525BBD
:1028D000535352535252530953A5F7F7AEAFAEA616
:1028E000AF53AEF7F7AEF7AFAE53AEF7AFF7AFF704
:1028F000F754AEAEF7AEF7AEF70AA5A6F7FFAFF7FF
:10290000FF535CAEA6AEF7AEAE5C53545C535CA511
:102910005C5353535C535C5453F7AEA552520A0AAE
:1029200053F7F7A55BA452535CAEF7A4A5A5AD5B26
:1029300053F7A5A453A5A4A409AEA55353A45B5271
:1029400052A5545453535B52515D5C5353A452519E
:102950005154545C5353A3529A5C53A4A3F0F0F027
:10296000F0535C52A3F0F0F0F05B535C5BF0F0F0DE
:10297000F0535353535BF0F0F009535B535B51F04A
:10298000F05252525C535B51F052525253535252D6
:10299000EB52525252535352A3F0F0F0F0F0F0F0D9
:1029A000F4F0F0F0F0F0F0ECA3F0F0F0F0F0EC5216
:1029B00052F0F0F0F0A3A3525BF0F0F09AA4A4A4BC
:1029C000A4F0F09B9BA5A4AC52F09A9C5353525B8D
:1029D00052EB529B9C5352515BA35152535CA5FF47
:1029E000AF520109535CAEAEAE5252535353A5F7EA
:1029F000FF530953535353A6F7525352535353A5FE
:102A0000AE5252535B53535C5453525B535C535C12
:102A10005C535B525253535353FFAFAEAEF7AEF716
:102A2000A4AFFFF7AFF7AEA553F7AEF7F7F7AFA533
:102A30005CF7F7AFF7F7A55C53F7AEF7AEF7A55C19
:102A400053A65CA65C5C535C53545C5C545C53536F
:102A5000535C5C5CA55C5C0A53A4A4525252525273
:102A60000953525B52525251525352525251515A7F
:102A7000515C535BA45252515252A4A4A4A49A9BF9
:102A80009B53535352A452A49C5252529CA452A4FE
:102A90005353525352A45353525352529B52ECF03D
:102AA000F05252529C529BF0F0525252A4539BEC63
:102AB000F0515152535252A3F052525152A452EC7F
:102AC000F052525252A452A3F09C52A452A451A3C9
:102AD000F05352A3529B52ECF0F0A35252520152C7
:102AE00052F0524A5252525252A352525252A4528D
:102AF00052EB52535252525352A3525252A4534A7F
:102B00009B9A9B5352A4A453A59A529B5252A4A49D
:102B10009C9A499B5252529B535253525B525B5266
:102B20000953095252A4A45BA4A45B5B52A452A310
:102B3000A4A452A4A4A452A4A4A452A4A4A4A4ED02
:102B4000A453A4A5A4A452A45253A5A45BA3A35226
:102B5000525253A4A4A4A49A51535354A6F7AEA519
:102B60005C535C53AEF7F7AEA5A45353F7AEF7F73B
:102B700053A55354A5F7F7A553535353AEF7AEA53A
:102B800052A4A553A5F7F7A552A453535CF7A55338
:102B9000A452525353F7A54A5253530A5252525118
:102BA000525453535B52529B9A530A525252A4A40A
:102BB0009B53535352A4A4A4A4535BA3A4A4A5A5BC
:102BC000A5A45B5BA45B5253A451A352A3525353DD
:102BD0000A52529B5252539C0152525252525353D8
:102BE0009A51525252529C5352A4525252529CA445
:102BF000529B52524952539B52539B52529B529C4E
:102C000052A5A55352A452A452535B53A4525B52F3
:102C1000A2535352A452A351A3A3519BA553525262
:102C200053A3529BA49B535252A3495253A45253B1
:102C300052EC524A525352A452A34A534A52535B43
:102C4000A49A5252520953A453A39A5200525BA41D
:102C500052A39A515150A2A39A5352525253015324
:102C600054535353A4A4539C5352A4A452A4A4A4B5
:102C7000539B52A3A4A4A4A453A4A4A4A4A4A45B5B
:102C800053A4A4A4A452A452A4A49BA352A35252FA
:102C9000A4A3A3ECA3A3A35252A5F7F7AEA5535345
:102CA00052A5F7F7F7A653535353F7F7F7A5535227
:102CB0005253A5F7A6A553535253A5F7F75453A55E
:102CC000535353F7EFA553A4535353F6A59C5352B4
:102CD000529A52A4F69A5251515252A4A4A4A45208
:102CE00053525253A4A45BA452A4A4A4A4A5A5A483
:102CF000A4A4A4A5535353539C5CA45353535353BC
:102D0000525253535253535353A452529BA4A4A40C
:102D1000529AA3A3A3A3A3A351525252A4529B9B82
:102D2000F053A49B52534952EB5252525252529A70
:102D3000A3A4525152525252EC525B525209525277
:102D4000A352525108520051515B52095251005244
:102D500051A3515000514851EB05080005060708E2
:102D60000E0F10111218191A1B1C22232425262CB1
:102D70002D2E2F3000363738393F40414243494AE3
:102D80004B4C4D05080102030400090A0B0C0D13FE
:102D9000141516171D1E1F20212728292A2B313212
:102DA0003334353A3B3C3D3E444546474800FF06F8
:102DB000015300C00000B0076400904C6400B107EC
:102DC0006400B207640C9047640C9049640C90470F
:102DD00064069053640C905364069051640C9050B8
:102DE000640C904C640C904C640C9047640C9049BB
:102DF000640C904764069053640C905364069051A1
:102E0000640C9050640C904C640C904C640C904793
:102E1000640C9049640C904764069053640C905382
:102E200064069051640C9050640C904C640C904873
:102E300064009154641290566400914A6414904C5A
:102E400064009158641A9047640C9047640C905346
:102E5000640C90536400914C64009247640C905150
:102E6000640C9050640C9051640890506412904728
:102E7000640C9047640C9053640C90536400914E22
:102E800064009247640C9051640C9050640C905113
:102E90006406905064129047640C9047640C905301
:102EA000640C90536400914C64009249640C9051FE
:102EB000640C9050640C9051640690506412904CD5
:102EC000640C904C640C904E640C904F64009148DC
:102ED00064189053640C90516400914E6400924ABF
:102EE00064189053640C9053641890536400914C90
:102EF00064009247640C9051640C9050640C9051A3
:102F00006406905064129047640C9047640C905390
:102F1000640C90536400914E64009247640C90518D
:102F2000640C9050640C9051640690506412904769
:102F3000640C9047640C9053640C90536400914C63
:102F400064009249640C9051640C9050640C905150
:102F5000640690506412904C640C904C640C904E3B
:102F6000640C904F6400914864189053640C905125
:102F70006400914E6400924A6418904F640C904A29
:102F80006418904C64009147640092446432904706
:102F90006400914E6424904C640C90476400914E00
:102FA0006424904C640C904E64009147640C904CE7
:102FB000640C904E640C904C640C904764309049C3
:102FC0006400914E6424904C640C90496400914ECE
:102FD0006424904C640C904E640C904C640C904EA5
:102FE000640C904C640C9047643090476400914EA0
:102FF0006424904C640C90476400914E6424904C7F
:10300000640C904E64009147640C904C640C904E9C
:10301000640C904C640C9047643090496400914E6D
:103020006424904C640C90496400914E6424904C4C
:10303000640C904E640C9047640C9047640C905361
:10304000640C9051640C904E640C904A6418905338
:103050006400915A64249058640C90536400915A0F
:1030600064249058640C905A64009153640C9058F6
:10307000640C905A640C9058640C905364309055D2
:103080006400915A64249058640C90556400915ADD
:1030900064249058640C905A640C9058640C905AB4
:1030A000640C9058640C9053643090536400915AAF
:1030B00064249058640C90536400915A642490588E
:1030C000640C90536400915A640C9058640C905AAC
:1030D000640C9058640C9053643090556400915A7D
:1030E00064249058640C90556400915A642490585C
:1030F000640C905A640C9053640C9053640C905F71
:10310000640C905D640C905A640C90566424905842
:10311000640C9058640C9058640C9058640C90584F
:10312000640C9058640C905864069058640C90534A
:1031300064069058640C9058640C9058640C905835
:10314000640C905864189053640690536406905829
:10315000640C9058640C9058640C9058640C90580F
:10316000640C905C64129058640690586406905801
:1031700064069058640C9058640C9058640C9058F5
:10318000640C905A640C90586418905864069058D7
:1031900064069058640C9058640C9058640C9053DA
:1031A00064069053640690586406905864069058DC
:1031B000641890586406905864069058640C9058AF
:1031C000640C9058640C90586406905864069058AB
:1031D000640C905C6418905864069058640690588B
:1031E000640C9058640C9058640C905C640C90587B
:1031F0006406905864069058640690586406905C83
:103200006406905864149058640890536408905869
:103210006414905C64009158640092536416905357
:10322000640C905F640C905F64009158640092534A
:10323000640C905D640C905C640C905D6406905C22
:1032400064129053640C9053640C905F640C905F14
:103250006400915A64009253640C905D640C905C1D
:10326000640C905D6406905C64129053640C9053FF
:10327000640C905F640C905F6400915864009255F8
:10328000640C905D640C905C640C905D6406905CD2
:1032900064129058640C9058640C905A640C9054CA
:1032A0006400915B6418905F640C905D6400915AB7
:1032B000640092566418905F640C905F6418905F8D
:1032C0006400915864009253640C905D640C905CAF
:1032D000640C905D6406905C64129053640C90538F
:1032E000640C905F640C905F6400915A6400925388
:1032F000640C905D640C905C640C905D6406905C62
:1033000064129053640C9053640C905F640C905F53
:103310006400915864009255640C905D640C905C5C
:10332000640C905D6406905C64129058640C905834
:10333000640C905A640C905B640091546418905F24
:10334000640C905D6400915A640092566418905B1E
:10335000640C9056641890586426905F6406905FE1
:103360006406905F640C9058640C9058640C905FF5
:103370006406905F64069061640C905F640C905DDD
:10338000640C905C640C905C640C905A640C9058D3
:10339000640C905C64489058640C9058640C905A8B
:1033A000640C905A640C9058640C905A640C905AB7
:1033B00064189058641890536406905364069053B0
:1033C000640C905C640C905C64269053640C905385
:1033D000640C9053640C9053640C905A640C905A93
:1033E000640C905A64189058640C9053640C905A72
:1033F00064189058640C9058643C9058640C905F2A
:10340000640C905D640C905B640C905D6418905C3F
:10341000640C9058643C904A64009156640C904C43
:1034200064009153640092586460FF06014500FFF8
:103430002F000000008334000000000000008334EF
:103440000000000000000083340000000002E74F8D
:103450000000FE01FF0102CF4C000016031703021B
:10346000C03B00000D110E1102C8390000F601F733
:103470000102673600005F036003029D340000C84C
:1034800001C901000946000A50000200000730008F
:1034900000040106000000F808050000FF01FD021D
:1034A000FE01FEFF02F513E70B0FE216FDFA03061D
:1034B000F20DF9FF0103FAF8060A01FB14F30CD828
:1034C0003CB646038D5EC70515E8FC28D40BDC1618
:1034D00023EB1BF150F1D118F9BE01000B301A1A81
:1034E000CFD4CED51019572AC7E8DECCE527453E04
:1034F000FEC7F5C2FD343529FBDCC1E80816341AD5
:10350000EEE3C20AFD1A35F015EFC2FEF41730FAE9
:103510000BF1DCF8F4FB111213F5FDFAFA00030AC3
:10352000F9FA1709FB00E906FBEC051603FFEFEEBD
:1035300005F0130A0012F0F40200090C00F502F77E
:103540000511F5FEF2F2FC0D0FFE09F5F4ECF7148F
:10355000100E00F5F2EEF902180701FDF1FEF20778
:10356000090FFBF6FE03030405FA00F8FDF80E0B45
:1035700003F7F4F8FB00070DFCFFF2FEFA020D0E54
:1035800001F6F5F508010D0701FEF2F2FB08100344
:10359000FCFEF8F10307040302FEF5FBFD0CFF023D
:1035A00003FAF7FC05FF040404FBF7FF04FE060220
:1035B000FDFF01FDFF00FD0200FEFEFFFE07FA0019
:1035C00000FDFEFB07FD020104FCFCFFFE02FE0401
:1035D000FD0201FBFEFF0202FE0002FDFBFF05FEF5
:1035E000000101FB00FFFB020003FE0301FCFBFEE8
:1035F000000104FB0500F90100FDFF020004FCFBD3
:10360000000201FE0202FEFAFF00FE03020000FEBD
:10361000FDFBFD020402FD0101F9FE0002060300AC
:10362000FDFCFAFE0205030000FDF8FA01020603A4
:10363000FFFEFCFE0003010302FBFE0000FF00038F
:10364000FEFAFF01000000FE0001FD00020000FD87
:10365000FC0300FE010000FDFCFF02000000FD0174
:10366000FFFC02030000000402010708050508042E
:1036700006050705060606050505050505060405F4
:10368000040504050204020301030101010000FE18
:1036900000FEFDFBFEFBF9FCFEFCFAFB00FEFDFE5E
:1036A000FDFCFCFF01FEFBFDFCFBF7FDFBF6F5FB63
:1036B000FEFBFCF9F5FBFFFF00F8FFFFFBFAE7EE6E
:1036C000151201050603010508000004030705089B
:1036D0000B070A0A040A0A090A0607080403040178
:1036E00001040704FF00FF01FDFDF8FBF6F6F8F406
:1036F000F6F4FCF8FCF1F9F6F6F2F9F9F1FBFC044A
:10370000F703F5F8EFF6F2F3EFEEF6F2F4E8F9F47A
:10371000EBEC3832F4FC1300050F010806110C1114
:103720000C0F120F0B0908070706060405050E0704
:1037300003FD00FBFAF6F4FF02FDFFFCF4F6EDF7E3
:10374000F7F6FBFDF601FDF7FBFCFBFDFAF4F4E9EF
:10375000F0E7EAF9EDF2F6FCF8FEFD0500F902F8F3
:1037600004EC01DFF9D3F64842181421F71DF01AD2
:10377000FC1209051C211819280F200C1D03160E18
:103780000305FD01040A0702F8F800F6F9FEFAF550
:10379000F4EFEFEAE8EDF4F6FAF4F6FDEFFAF1F7FC
:1037A000F2F9EEF0EBF1E9EFEBE8DCE4F1E4E9E16A
:1037B000EDEAFCF2020404F2FEE8FCE6E52831132F
:1037C00022200917051412191120142110211E227C
:1037D0001A211E1E180912FF14031200070006F911
:1037E000FDF7F0F8EBF3F8F3EBEFEEEFEDF5EEF6B7
:1037F000ECEAF4FCF3F8F1EAF2EBF8F4FDF0FB008C
:103800000E06020EF4FAEEFEEFEFE7E5DDEFB8BAD2
:10381000271F10283F122C1627282127162319149A
:10382000131204120B0C0D0EFF120409050301F60E
:10383000FBF3FEFA08070701FFF602F4FB00FBF6B4
:10384000FBF9F3F3F5FBF8F9FC0AFC02FC08F506BA
:10385000ECEFE5F5FFF9F8E9E9E1E9DAEEE3F9F390
:1038600006060BFC3D48342F36311F250D1A0F1468
:1038700010130718131A1721090F060909060B045C
:10388000100007020900050101FC09020302060CF1
:103890000A06080A0406FB0202FFFE01FCFBF6F220
:1038A000F9EEFFFDF7F609FD020C010BE9FFD9F86F
:1038B000D9EED4F3EBEB048DFB2C3E0648090B1339
:1038C0000813FF15062E112E1C2A0E25131C24206A
:1038D0001D111A0008000E010609FF0701FA020572
:1038E00000FA02F1EDF1F7F0FDFCF3FBF7FAF3F863
:1038F000F9F3E3E5EFEBE6DEE1D5E1DED5E0E6E185
:10390000D9E0D9E6E0E1E3F8EFFFDC2E6C300D2DD5
:103910003B0530051B0D15080502010C1121112472
:10392000161A101E0A18060F00FD09FBFCF3FAEC2C
:10393000F4EAF7FBF9FCF3F1F7F6F6EFF7F7FAFD27
:10394000F9F2F5F2F9EFF0F8FE04FC03F104E5FEFC
:10395000ED04F4FAFFF7F6E8F1D9F1E4F8E4FBD767
:10396000383524042325092F092701210B250718A1
:10397000081007060A0100F205F602F302EBFFF257
:10398000F4ECF1F0EEEAE5EAE6ECEAEDE9EEE7EF79
:10399000EFF2EDF1F0F2F1F1F3F3F1F2F3F2F2F014
:1039A000F3F2F3F0F1F1F2F1F1F2F2F1F0F1F2F100
:1039B000F1F2F1F2F3F2F3F4F4F5F5F7F6F8F7F9C2
:1039C000F9FAFBFBFCFC00000CF1F134E4D03B0500
:1039D000C3190CE427EBF82DD7DD55208DFF69DDE9
:1039E000C927FFF805FFEBFF4FDDC9F83434C3D01A
:1039F0001927F1EBFF2DF1DDF83434B5B54841EB73
:103A0000C9051327FFA8272DE4DD3BEBF834F1BCF3
:103A1000EB691994FF2013FFF1F1F1050505EB05A2
:103A2000F105FFF119EBD71913F8C32720C30505DA
:103A30000505DD052DD0F8FF050C0CEBD7200C1388
:103A4000E4D72720E4D70C2DF1D71305F120FFD7B9
:103A5000F8200CF8D705270CF8E40C13FF13FFF13E
:103A6000F11919D7FF050CFF0519D713FFFF34D043
:103A7000D73434D0D734FF13F8C32034D7EB131323
:103A8000FF05F1F8200505EB132DEBD0193BD7D03E
:103A90002D27C9F8130CEB05FFD7190CE4EB2DF813
:103AA000D720FFD0132D0CB5F13B13E4DDFF19F83F
:103AB000F805E405F1F80CF805F8F10505FFF8EB59
:103AC0001313EB05F8FFFFFF05F8F819FFD70C27D4
:103AD000FFDD050CF1DD2D2DD7C9273BEBD0FF27EE
:103AE0000CD0FF130CEBFF0CF80505FFF10C13F1E4
:103AF000F11319D7F1200CC91320E4F813F10513C1
:103B000005F1E42720FFDDF1340CF1E42020E4DDB1
:103B10002027F1D01320FFE405FFFF0513F8F1057E
:103B2000FF05FFF8F119FFE405050CF8E4FF20D7C5
:103B3000DD2013E4DD34E4D03B0CC9D0342DC3DDEB
:103B40001313F1F1FFF80C0CDD0C19F8DD0C20F16A
:103B5000EB050C0CFFF1F81319D7EB2719D0F8205F
:103B60000CEBF813FF05EB0C13FFDD0C19F1EBFF69
:103B700027F8DD190CEB0505F8F119FFEB0505F841
:103B800005FFF10CF1DD0C190CF1F1130CFF05052B
:103B90000CEBF80C0CFFF8F80C05F8FF19F8EB0526
:103BA0000C0CF1F105F80CF8F8F8FF0CFFF1FFFF31
:103BB000FF0CF8F113FFEBF80CF105F8F80000002A
:103BC0000000FFFFFFFEFD02FD0101F8FE040107FA
:103BD000FDFE0500FBF800FB02030EF3F308FD07F2
:103BE000FA0C06ECFB1405FB0507F3E30104000CDB
:103BF0000D06F8F7EEF40401080DF2FA0F0313F6C0
:103C0000FEF9EA0E120200EC0103E50E02F6080AC4
:103C10000BEEE90EF4F90A110AE9F80DFC080706A3
:103C200010EFFC14F5E6FD0A04D6021102080B178A
:103C3000EDDA06FBF40D0413F4F80E011406F9FA9C
:103C4000F40706FCF3F30409EFFAF903080D11E198
:103C5000F70BF8F60916FBEDFF08020E0B04FCF457
:103C60001806EBEBF307FEE6FF0908050F1EDAEA7C
:103C70000BF5FA001507F206060C06F20AF2FB1C19
:103C8000F9FFEBF00701EFE9031300130CE5FE0663
:103C9000FAFB0B03F9F50A06FD0F0100F00A2FE904
:103CA000E5EEEB0AFAF8FF00150118FACA1105F95A
:103CB000FB061BF7F60C0608F206FBE01E27FEE7E4
:103CC000E6F90600E8F10F0D040FEEE81207FDFE1D
:103CD0000000FBFC0BFF0D0A04EEE12E17F3F2E3EC
:103CE000F5FC0301EF0B0D0F0CCCFC120100EF1FD4
:103CF000FFF00F050BF50114D2ED2C1606EBF3FACD
:103D0000F300E9F4140A0E05DE02070D06E809FBCC
:103D1000FC10F80E0A000ACD0526FA0FEFF2ECF0BF
:103D20001EEAEE180C11E2E319F90CFCFF10ED0C81
:103D30000EF900000AFCCE0C260D06F2F5EBEE099A
:103D4000EAF5180713EBEE13FF13EFF40AF712FD71
:103D5000F9150106F4E0120910FFF5F0E714FFDF92
:103D6000031D04F4E80709FD0CFD02F60917F4F041
:103D70000C0602E8E823120AFBFAE3E914F4E6066B
:103D8000100908EB040A05FAF400FD1306F9090C02
:103D9000FB07EAE9100F10F5E8E40C13E8F315FD52
:103DA000F803F30EFC070CF8F40C1DF8EF070AF902
:103DB00001E60718040FF8D7E10F07ECF816F90A27
:103DC000FDF11CF601FEF00B0C0A03FC11F70303D6
:103DD000D2130A100FDFDFF710FAF40D02E714F622
:103DE000FE0AFD18EFF01D0FF8FBFD16ED07F7E9D1
:103DF00024F91B07CEE8F70DFCE81CFDFC0FE61CC0
:103E0000F3FE0CDE13130109FD0B00FA0FD2FF14B1
:103E1000061BE9E9F8F708F9F60BED0B02EE11FACB
:103E200017F7E32A0AEF07F912F1050BD51A031762
:103E300012D4F8E7FA0FE40E08F811EE0DF5FC10B5
:103E4000DD07220102080204F60DE7E5150A16F95E
:103E5000F200E1FF0EE109FB0209E814000BFADEB3
:103E60002414EE0AFB0BF9FA18DA0110110AE20524
:103E7000F3DE0FF8F50FFD0EF5FB030103E7F72363
:103E80000FFB0EFA0AF6FFFFD80F130801F80EE831
:103E9000E816DEFC09000EE30E0F08F7E60C16FC30
:103EA0000601FE04FA13E6ED1910F8F40603DFF438
:103EB0000FE70A070DFAE30E0D00EAF11719FD0EE0
:103EC000FD03F7FF05D6071706FE030AFBE1FEF424
:103ED000EF0B060EE6FE160BF9EEFA110DFF0AF5D2
:103EE00005030FEDE41C0CF1FF0807EEE20EEDFEFA
:103EF0000C11FBD80E1006EFEE0D1C060606F8F7A7
:103F00000A06D9FC1A0BF3090B07E9E202EA060FCD
:103F100008EEF4120D03EFEB0F1A0008F6FE06127E
:103F2000F0E1150AF8F70D09FDE5FAF7F11018F4BC
:103F3000DE050A0DF5F0FF1A13050AEDF40F07E090
:103F4000F31514F2FF100EF1D701EEFC120CF1F292
:103F5000090A0FEFE4071B0B08F7FB0214F3E9094A
:103F60000409ED090F02F0ECFBF00A1BF0E6030177
:103F70000FFBF5F910160C0CE7F50D09E6F10C181E
:103F8000FDF01414F3DBF6F4FA0D12F2F503051547
:103F9000EBEA0413110AFCF90012F9EBFCFE19ED2F
:103FA000FE1408F9E7F3F60807FDFDFDFC0A00031F
:103FB000FEFC080503F6020FFFFC0600FFFCF902F9
:103FC000080202DFF210FF05F808FEE8031103F70C
:103FD000FF10FFE4FF0E070D0A06F5FDECEF0B00E6
:103FE0000800E0FA160512F5FCF2E80A0A0905F7DE
:103FF000190BDA0F0D030D0A0DF1F007F3FE050A98
:10400000F8D7FA0EF904FDF900F0FE1C09E7FD10DF
:1040100005DB091506040A16F2DAFEFEF30E0508A2
:10402000F3010EFD0C00F0EEF0040F0D010C100A70
:10403000FD020305030104DCE5F9F9F50A16F2F3C4
:104040000003FD0503FAF6EB0E10FBFA040500ED84
:10405000010B0805081EDEE507F7FA030DFEFA0658
:10406000030801F10AEEF5210C1710090806EDE02E
:10407000F603F0090EE5FF08F9F503EFF0F7070A7C
:10408000FC090301E7FC20EBF80DFD0BFDF4030335
:1040900013FD18FFCC0EFFF5FB0011FAF80E0C080B
:1040A000EC0D01DA1318060D0F0A0B03E7F40CFAF6
:1040B000F403E1E00700FC02FBF8FAF80C02060842
:1040C0000CEFD91F06E8070507FD0206F90E080DDB
:1040D0000ACBFC0EF800EF17FAF10E080FEF051BE4
:1040E000D6ED240A08041613000AF6F904F4F9F1CF
:1040F000D5FFFCFD03E705F7F70CFB0D060812CF13
:104100000116E80AFA1301ED1EF3F7160A0BDEE7B3
:104110001AF408F9FC0DEC0B1002FE000E00D50895
:10412000180106092005F713F6F912F6F7D7E2048D
:10413000ED07EBF307F30EFEFB150507F6E70AF7AD
:1041400007020508F31204E9081DFCECE80906FC67
:104150000AFF06F60714F7EF0A0600EEEE1B080545
:10416000021103FB1E0FFD0F09EDE6CFE9F5F5F196
:10417000F503001004F9050DFE07F0EC080207FC3A
:10418000FEFC0A0CF0FC1F01F3FEEE0BFE0305F72C
:10419000F70A18F8F0080CF600EE0512FE0D09F902
:1041A000021B14050E20E9EADDCD01E8F3F5F00D60
:1041B000090801F80FF80309D91005020CEDFE0EED
:1041C0000BF6F8160AE710EFF70BFD10EAF01C0CDF
:1041D000F7FBFE17EB05FAE924F7110CE50C0E13BB
:1041E00009FC330AF7FEC5F5D2E5FAD81715010721
:1041F000FB0AFEF80FD70014FE0FEEFD150300FAC0
:10420000F914F108FFE70FFB15F1DE270AEF05F9B6
:1042100014F1030DD81C050F08DB100A070FF2215B
:104220001BFF0CDEF4DCE5FBCE0020030001FE02E8
:10423000F20BEAED1C0A09EFF818FDFF06E40D0386
:10424000070AE30FFE0BF8D81C11F10BFB0DFAFA6D
:1042500017D7031410FEDF0E10FF0EFC031E0D19FE
:10426000F7EFF1E4E2CDE71D12FD09F50AF3FCFDDD
:10427000DA141806F6F61406FB0BDF010B0413E341
:104280000A0B05F5E5060FFB0600FF06FC15E4EE3C
:104290001C14F3EC080F03030AF318181F08E1FFBE
:1042A000F3DDCCDD0A16FF0CF8FFF4FC01D30A1F86
:1042B0000CF7FE0C0A01FFE9F30E0B12EBFE1209DC
:1042C000F5EDF60A09FD0AF5040512EADF1C10F304
:1042D000F7070F0A050CEE0A182007DE05FFF2D8D3
:1042E000D5F710020403F1EF0703D3FB2115F60005
:1042F000070D07F6F6E90A140FF4FA1007FDEEE9C8
:104300000913FB07F7FD0615F0DD130BFAF4070C94
:104310000C0A09F1F9192600EA0B01F8DAD7E609C7
:104320000D050CECEA0803D9ED161AFAFE0D150876
:10433000F8FEE2FE1614F3F80C090BEDE604140285
:1043400002F8FC0117F5E706030BEF020E0D0F084C
:10435000F6EF1326FEF00C0001E1D8DDF80A0A0F93
:10436000ECF30904DFE7071A06F50E15020005E66F
:10437000F91018F4F80A0915E5E704100B02F9F929
:104380000016FCEBF7FA15F1FD100E110BFAEF0E0B
:104390001C01F30A0309EED6DEEBF9070AF0FE076B
:1043A0000FE4E3FF0F0CF00E11FD0A09EAF8091CF7
:1043B000F9F306081BE7EA040D0E03FAF9FB1109ED
:1043C000E8EDFB18F5F60E0C1112FBEF0D110CF5D4
:1043D00006080B00DBDDE2E8FFFDF5080217EFDF62
:1043E000FB090EEE0C10FB100EECF7041B01EE07A0
:1043F0000816EFEE020A0E08FAFAF80719E7E7FFC7
:1044000016FCF0090C081601F30B0315F4FD0D0A58
:104410000FE7E2E9EBF4EEF10DFE19FADDF9030F17
:10442000F20409FE0B11F2F704140CE805090BFA6B
:10443000F0FB0C0B0FFDFAFCFA1EE6E4041008EE8C
:10444000020C041406F406FB1BFAF60D0816F5E63A
:10445000EDF3E8E2EA09001507DDF9030AFAFBFFCC
:10446000050714F6F6080A13E803090205F1F71127
:10447000080F02F900F41EE7E1090C0EF3FD0A0231
:104480000C0AF404FC1602F30B061800E8F301E230
:10449000DCE2FF020D13E1F6050501F3F80B03154D
:1044A000FAF20E0213EDFF07FA0EF3F1130B0C07ED
:1044B000F803F317EDDE080B12F8FA08030510F401
:1044C000FE010F08F30804160AECF80DE3DBDAEF3F
:1044D00002051CE9F3070706ECF20C011302EF10CA
:1044E0000111F2FC05F60FF5EF1010090BFA04F7B5
:1044F0000EF3DD030B12FAF90706FE12F7F5050BB2
:104500000DF20405120CF0FC16EDE2D9DDFBFE1DE8
:10451000F2F0070A09E9F10B020D08F00E050EF69C
:10452000F801F610F7F00B12090EFC00FD08F8DE9A
:10453000FC0C14F9FA0706FC10FBED080A10F4FE57
:10454000050F0AF0001AF9ECE4D2EDF71BFCED05BB
:104550000F0BE5F20700090DF3080B0EFDF5FBF656
:104560000EF6F206130B0E00FC0303FDE1F20B1531
:10457000F9FB0B05FC0FFFE3070F12F8FA060D0617
:10458000F0031303F6F1D2DDF01404EB00170CE096
:10459000F804FF040EF8FA111204F4F4FB0AF3F91C
:1045A0000010100C06F6070102E9E70916F7FC0FE8
:1045B00003FF0D04DC001614FAF5090F01F30904DA
:1045C0000703FBDCD1EB0A09EAF91D0BDE0000FD55
:1045D000030DFEEC14150DF3EB0406F1FFFD0914B9
:1045E0000C08F2090005F2DE0813F8FE11FF040CB6
:1045F00003DBF6191402F20B11FAF70DF7080E039C
:10460000E7CBE9FC0BEBF22304E306FEFB020C0311
:10461000E1141815F5E20CFFF302FC02160D0AF284
:10462000020109FED80410F8FF11FB0A0D01E2E9AE
:104630001C1208F20515F5FF0EEA071507F4CBEB7F
:10464000F108F1EA23FDEB09FDFA020A08DC082073
:1046500017FADF0FFEF306FCFA171009F9F3090841
:1046600008DEF514F7FF10FA0D0900F2DA1B130B40
:10467000FBF819F4050AE406190BFFD3EAEBFAFB81
:10468000E416FFF509FFF8040908E2F42A10FFEA2E
:104690000205F00701F117130AFFE012070AF0E222
:1046A00017F8FE0DFD0B0304FFD310190808EF12D5
:1046B000FE0306E900180D04DFE2F4EB05E9F90B4F
:1046C000F80603F5060807ECE22D0C01FDEE0EF0EE
:1046D0000406ED12160E01DA100D0503D71002F6CE
:1046E0000B0202010906DBFC22040FF00211F903A0
:1046F000F5F7170F07F2DAFAE304F1DD19FA000A09
:10470000F4060706F6DC1F0F010DE30DF8FC0BEFB6
:10471000071B0FFFE20115020EDBFF12EE0809F581
:10472000020C08EAE825070DF9F11EF2FD02F11569
:10473000120601D8F3E8FCF6CE1C04F60EF90108C7
:1047400004FDE204160512E70206F309F6FD200E49
:10475000FBF5EE16070CE7ED1EEF010DEC030D0562
:10476000FADF1B140701EA1CF5F709F10E1504091D
:10477000E3E4F6F6F1D01211F10802FB0903FFF1B0
:10478000E9180E0DF3F50FF6FEFBFA1E0DF708E61D
:104790000B1307F1E61CFCFA07F0FF0E0301E60815
:1047A0001D0601EF0CFEFB01FB09160606F6D8F903
:1047B000F7E6DB0517FBFA08FC0308FCFCDF0D1924
:1047C00008FBF20B02F7F403160CF90DF0F8180CC5
:1047D000F1E81109FFF4FAFD0A08FCF7FA190FFED7
:1047E000F5FD0007F6FF0C100D0103DCF2F6E0DF2B
:1047F000FE1604F70304FC0B01F9E1041A0BFBF2AB
:104800000804FBEC090F05050AF9F21313F0E80D93
:104810000D02EAFF01010FFBF9F8141202F4F60091
:104820000AF6FC0F0D0F0403E4F0EFE6DEF91803BF
:10483000FCFD09FA060BF2E3031510FAF20B01FF77
:10484000EA070DFF0C0AFBF30D17F5E10D11FFEB65
:10485000FF04FC0D01F6F712120BEFF20505FDF84F
:104860000F0E0A0802EBF3E8EDDCF11E0000FB0777
:10487000FD0111F1E1031112FCF00FFFFEF201093D
:10488000FF0D0DFAF30C15FEDB0B18F7F1FF04FD1D
:10489000070AF4F0160E12EBEE0DFA04F9071308EE
:1048A0000B04EAF5E3F2E2E523FFFE0100FF000F4F
:1048B000F8DA01150D03EB1200F600FAFF060912F3
:1048C000F9F1130D09D80221EDF902FE010110F8EA
:1048D000E51C0D13EFE714F10602FB150C0907E7C1
:1048E000F8E6EDEBDB2102FA0AFBFD050AFED7FB39
:1048F0001E0508EC0F04ED0DF8F40C0812FBED1A80
:10490000080CDDF924E8FF06F803000FFCDD1D119B
:104910000FF5E415ED060AF412130709E9F7ECE3C5
:10492000F0D91907F810F9F9090600DBF224030899
:10493000F00B05E914FAE90F0C0DFEEA1C080BE573
:10494000F221E9010AF702030C00DB151A0AF9E764
:1049500011EE040FF30B1A0707EFF1F5E0F0DC0D91
:104960000CFA11FBF50D04FEE4E9250505F7050534
:10497000EA16FCE20E120901EA190C07EFEE17ED38
:10498000030BF700070902DD082307F9EC0BF2021D
:1049900011F5021D0905F5E8FEE1EDE2FF0FFE113C
:1049A000FBF40D01FDEEE1220B03FDFF04EC16FD0F
:1049B000E10B150703EB131203F9EC0AF2060BF9EE
:1049C000FF080705E0FA2A04FAF204F6FD13F8FDE1
:1049D0001D0B07F8E107E4EAE5F2120011FDF70A02
:1049E000FB00F6DA1C120301F904F012FBE40714D1
:1049F0000905ED0B170003EAFCFA060BFCFE09069D
:104A000009E4EE2E01FDF7FD00F713FCF9190D0E78
:104A1000F7D90BE7E9E9E815020E00FB04F505FDFF
:104A2000D712190405F304F807FBEB01130B09F087
:104A3000001DFE0CE8ED06010B00FD09030EEAE483
:104A40002CFE01FCF40AF31001F7131011F6D90B38
:104A5000F1E7EADE1308050700F8F60704D9012498
:104A6000030AEF0105F4FFF5F915090EF7F220002E
:104A700013E5DF16FB0805FC09020EF4DE1E050532
:104A800000EC0EF70708F70C180AFBE1FCFCE2EF5C
:104A9000DA0B16FA0E02EDFF0209E2EE2B040DF01E
:104AA000FB10E700FBF515080E02E8180B12E6D91B
:104AB0001C000008FF03050702E205130406EA08CC
:104AC00005FC07FA071FFFFFF1EA08E5EED9FC2114
:104AD000F90A01EC020007F1E3230E09F9F50DEDE7
:104AE000FCFBF90F0E070DEC031A09EBDA120FFAB3
:104AF0000306FE080308ECEB1D0507F0FA10FDFFA6
:104B0000FB0A1BFD0002E201ECE9E0EF210703FADA
:104B1000F5FE0304F9E511190403F2FFFAFBF5FCB5
:104B20000A12070DF5F52002F4E00219FA0007FE5B
:104B300004060AEEE11F0807F9F012FFFDF90E1254
:104B4000FE0504E4FBF9E8E5E41913FBF6FEFB01BE
:104B500006FBE90420000DF2F006F8F6FB08100948
:104B60000DFBF11CFFFCEAF21DFC000501FE090D26
:104B7000EEE6160C0202ED0B05FCFD0A0702090029
:104B8000EFF502EBF1EA0717F7F900F90008FDF07D
:104B9000FB17010AFCEE0AFCFAFB01070A08FBF707
:104BA0000C03FEF9F10E03FE02FFFB0A0CF4F407FE
:104BB0000DFE03F6FE08FD0103FF0409FCF7F805EE
:104BC000F6F6F6FC0EFAFCFFF9FF0AFFF3FB0A0605
:104BD0000301F50401FDFCFE000907F9FD0106FFD4
:104BE000FDF80105FF00FEFA060CF8FC020800FFC4
:104BF000FEF9040202FFFE0409FCF9FE00FDFAFCC6
:104C0000FA0400FEFDFAFE0701F4FE04040202FDB0
:104C1000FD0201FCFBFF0706F8FF000102FEFDFCA0
:104C20000402FFFDFB0309FCFD030301FE00F9FF85
:104C30000403FEFE0406FDF801FEFF00FFFBFE027A
:104C4000FFFCFBFE0502F7FF0101030101FB01046C
:104C5000FCFBFF0505FAFF01FE0300FDFB0105005B
:104C6000FDFD0106FFFE02FF0101FFFBFC0305FD48
:104C700000030400F900FEFD04FFFCFC0102FBFC44
:104C8000000103FBFEFFFE040301FEFF04FEFBFF29
:104C90000202FEFE01FE0103FDFB000202FDFF0019
:104CA0000102FD01FEFF03FFFCFD0104FF01030003
:104CB00001FCFFFEFE0401FCFD0001FEFDFF000102
:104CC000FFFEFFFE020400FE000200FCFF000001E8
:104CD00001FEFEFEFCFCFCFCFCFCFCFCFE01FEFC00
:104CE000FEFEFCFCFEFAF7F3EEE7EEF7F7010F1815
:104CF000222937322D372B241D1D0FF5F3E9D9CD8D
:104D0000C1B39E999797ACC6D9EE13324A61726FC0
:104D1000665C4C39291B05EED6C1B3AAA7AEBACD45
:104D2000DDEEFE0A18242D373E3B342D241D1B16C4
:104D30000F0AFEF5ECE9E7E9ECECE9E7E4E4E7EE7D
:104D4000F5FC010101FE0303080F11110F0A030115
:104D5000010305050301FCFAF5F5F5F3F0F0EEECBF
:104D6000EEF0F3F7FCFE0305080C0C0F11110F0F0A
:104D70000C0A0808050301FEFCFAF7F5F3F3F3F556
:104D8000F7FAFCFEFEFE0103080C111416140F0ABC
:104D900003FCF7F3F0F3F5F7FC01010101FEFAFA69
:104DA000F7F5F5F5F5F5FAFC0103080A0C0C0C0A09
:104DB0000803FEFCFCFAFAFAFAF7F5F5F3F3F5FA54
:104DC000FE03080C0F111114161613110C0805FE22
:104DD000FCFCFCFCFCFCF7F5F5F5F3F5F5F7FAFC4B
:104DE000FEFE0305080505050301FEFEFCFCFCFABA
:104DF000FAF7F5F3F0EEEEEEF0F5FAFE050A0C0F19
:104E00000F0F0C0A0805030101FEFE010103030553
:104E1000050301FEFEFCFCFCFE0103030305030386
:104E20000301FEFEFEFCFCFCFCFEFE010101010193
:104E3000FEFCFAFAFAFAFAFAFCFEFE01010101019F
:104E4000010101010103030303010101010101FE4D
:104E5000FEFEFEFEFEFEFE01010101010301010155
:104E600001010101FE010101FEFEFEFEFCFCFEFE51
:104E7000FEFE01FEFEFEFEFEFEFEFE01FE0101FE46
:104E8000FEFE010101010101FEFCFCFEFEFEFE0131
:104E900001010101FEFEFEFEFE0101010101010111
:104EA000010101010101FEFEFEFE010101010101FE
:104EB00001010101FE01010101010101FEFEFEFEF1
:104EC000FEFEFEFEFE0101010101FEFEFEFEFCFCF7
:104ED000FEFEFE010101010101FEFEFEFEFEFEFEE0
:104EE000FEFEFEFEFEFEFEFEFE01010101010101CD
:104EF0000101010101FEFEFEFEFE0101FEFEFEFEBD
:104F0000FEFEFEFEFEFEFEFEFEFEFE01FEFE0101B8
:104F100001FEFEFEFEFEFCFEFCFEFEFEFE010101A9
:104F2000030303030101FEFEFEFEFEFE0103030573
:104F3000050301FEFCFAFAFAFCFEFEFEFEFEFE018F
:104F40000101010101030101010101010303030149
:104F500001FEFEFCFCFAFAFCFCFEFE01010103036B
:104F6000030303010101010101FEFEFEFE01010137
:104F700001FEFEFCFAFAFCFCFEFE0101010101014A
:104F800001010101010101FEFE010101010101FE1A
:104F9000FEFEFCFCFCFCFEFE010101010101010121
:104FA00001FEFEFEFEFEFEFEFE0101010101FEFE0F
:104FB000FEFEFEFEFEFEFE010101010101010101F6
:104FC00001010101010101010101FEFE0101FEFEDD
:104FD000FEFEFEFEFEFEFE010101010103010101D4
:104FE0000101FEFEFE0000FEFE01010101010101C2
:104FF000010101010101010303030101010101019B
:10500000010101FFFEFCFCFAFCFFFE01FE010101B3
:105010000101030305070D0911050501F4FAE1EA91
:10502000DBDDE3D9E5D3D3D0D0EE092648586D7245
:10503000726F563F11E7C6B1ADADB1B7BEC2C8D0B1
:10504000DFF005112433393B3535312D241605F2B7
:10505000E5DDDDE1E5E7E5E5E5E7E7EAECEEEEF0E5
:10506000F4FA030D1A242D2D2820160D070501FA38
:10507000F4EEECEEF4FA010101FCFCFCFE0101018E
:10508000FE010105070B0B0B0B0B0B0B0B090905A5
:1050900003FEFAF8F6F4F4F2F2F0F0F2F2F4F6F8B5
:1050A000FAFCFE01050709090907050505050505BF
:1050B00003FEFCFAF8F8F6F6F6F6F6F6F6F8FAFA63
:1050C000FCFE0101030505070709090B0B0B0B0B80
:1050D0000B0B0703FEFCF8F6F4F2F2F2F4F6FAFC1E
:1050E00001070B0D0F0F0F0D0B090503FFFCF8F661
:1050F000F2F2F0F0F0F0F0F2F4F6F8FAFCFEFE0155
:105100000507090B0B0B0B09090705030301FEFA41
:10511000F8F8F8F8FAFAFCFE01030509090B0B0B85
:105120000B09090907050301FEFCFAF8F8F8F8FA7B
:10513000FAFAFAFAFAFCFCFCFCFFFEFEFEFEFFFEA9
:10514000FFFEFFFEFFFEFFFE01010101FEFEFEFE6F
:10515000FCFFFEFFFEFF0101010101010303030348
:1051600003050505030505030301FEFFFCFCFAFA30
:10517000FCFCFCFCFCFCFCFEFFFE0101010101014A
:1051800001FEFEFEFEFFFEFEFEFEFFFEFEFEFEFE3A
:10519000FE01010101010101010101010101010102
:1051A00001FEFE01FEFEFEFEFEFEFFFEFFFEFEFE17
:1051B000FEFFFEFFFEFE01FE0101010101010101F2
:1051C000010101010101FEFEFEFEFEFE01010101E1
:1051D00001010103010101FEFFFEFCFCFCFCFCFEE1
:1051E000FEFEFEFFFE0000000000000000000000C8
:1051F00000000000000000000000000000000000AF
:10520000000000000000000000000000000000009E
:10521000000000000000000000000000000000008E
:10522000000000000000000000101818100000002E
:10523000182020202018001020FF202020201018E7
:105240002020202020201818202020202020181086
:1052500020202020202010001820202020180000CE
:105260000010181810000000000D0D0D0D0D0D00A0
:10527000000D0F0F0F0F0F00000D0F0F0F0F0F007E
:10528000000D0F0F0F0F0F00000D0F0F0F0F0F006E
:10529000000D0F0F0F170F00000D0F0F0F0F0F0056
:1052A000000D0F0F0F0F0F0D0D0D0D0D0D0D0D0F2F
:1052B0000F170F0F0F0F0F0F0F0F0F0F0F0F0F0FF6
:1052C0000F0F0F0F0F0F0F0F0F0F0F0F0F0F0F0FEE
:1052D0000F0F0F0F0F170F0F0F0F0F0F0F0F170FCE
:1052E0000F170F170F170F0D0D0D0D0D0D0D0D0FC6
:1052F0000F170F0F0F170D0F0F0F0F0F170F15179A
:105300000F170F170F170D0F0F0F170F170D15177B
:105310000F1717171715000F170F17171715001767
:105320001717171717150000000D0F0F0F0F0F009D
:10533000000D0F0F0F170F00000D0F0F0F0F1700AD
:1053400000150F170F170F00000D170F170F17007D
:105350000D15171717171700150F17171717170021
:10536000151717171717170F0F0F170F170F1717F7
:105370000F1717171717170F170F171717171717D5
:1053800017171717171717171717171717171F17A5
:10539000171F171F171F1F17171717171F171F1F65
:1053A000171F171F1F1F1F0F171717171715001786
:1053B000171F171F17150017171717171F15001F8F
:1053C000171F171F151500171F171F171500001F90
:1053D0001F1F1F1F150000171F171F1F1500001F7D
:1053E0001F1F1F27150000001517171717171F007D
:1053F000151F171F171F1F00151717171F171F003F
:10540000151F171F1F1F1F0015171F171F1F1F0016
:10541000151F1F1F1F271F0015171F1F1F1F1F00EE
:10542000151F1F271F271F171F171F171F1F1F1F9E
:105430001F1F1F1F1F271F171F171F1F1F1F1F1F84
:105440001F1F1F271F271F1F1F1F271F271F27273C
:105450001F271F271F27271F271F271F271F272714
:10546000272727272727271F1F1F271F1D00002744
:105470001F271F1D1D00001F271F271500000027C5
:105480002727271D1D1D1D1F2727272727272F27D4
:10549000272F272F272F2727272727272F272F2F6C
:1054A000272F272F272F27000000000000000000D3
:1054B00000000000000000000000000000000025C7
:1054C0001D251D251D2525272F272F272F25252F76
:1054D000272F2F2F2F2500272F272F2F2525002F70
:1054E0002F2F2F3725000000151F271F271F2700EC
:1054F00015271F271F2727001D1F271F271F2700CE
:105500001D272727272727001D272727272727008D
:105510001D27272F272F271D1D2727272F272F251B
:10552000272F272F272F271F2727272727272727FB
:10553000272F272F272F2727272727272F272F2FCB
:10554000272F272F272F2F272F272F272F2F2F2F9B
:10555000272F2F2F2F2F2F272F272F2F2F2F2F2F73
:105560002F2F2F372F372F2727272F272F272F2F63
:10557000272F2F2F2F2F2F272F272F2F2F2F2F2F53
:105580002F2F2F2F2F372F2F2F2F2F2F2F2F372F1B
:105590002F372F372F37372F2F2F372F372F3737DB
:1055A0002F372F373737372F2F2F2F2F2500002F4B
:1055B0002F372F2D2500002F372F372500000037DC
:1055C0002F37252D0000002F372F2D00000000372A
:1055D000372D2D0000000037372D00000000003768
:1055E0002D2D00000000001D27272F272F272F25F6
:1055F0001D252525252525000000000000000000B0
:10560000000000000000000000000000000000009A
:10561000000000000000000000000000000000008A
:10562000000000000000002F2F2F2F2F2F2F3725D5
:10563000252D252D2F37370000000025372F370067
:105640000000002D373737000000002537373700BE
:105650000000002D373F37000000002D373737009E
:105660000000002D373F372F372F372F3737373789
:1056700037373737373F37373737373737373737B2
:105680003737373F373F373737373F373F372D3F8C
:10569000373F3F3F3F3F2D373F373F373F2D2D3F70
:1056A0003F3F3F3F3F2D00372D0000000000002D01
:1056B0002D0000000000002D000000000000002D63
:1056C000000000000000002D0000000000000000AD
:1056D00000000000000000000000000000000000CA
:1056E00000000000000000000000002D3F373F00D8
:1056F00000002D2D3F3F3F0000002D2D3F373F0084
:1057000000002D3F3F3F3F0000002D3F3F3F3F0047
:1057100000002D3F3F3F3F0000002D3F3F3F3F0037
:1057200000002D3F3F3F3F373F3F3F3F2D2D003F84
:105730003F3F3F3F2D00003F3F3F3F2D2D00003FAB
:105740003F3F3F2D0000003F3F3F2D2D0000003F19
:105750003F3F2D000000003F3F3F2D000000003F75
:105760003F2D2D000000000000002D3F3F3F3F0077
:1057700000002D3F3F3F3F0000002D3F3F3F3F00D7
:10578000002D2D3F3F3F3F00002D2D3F3F3F3F006D
:10579000002D3F3F3F3F2D00002D3F3F3F3F2D005D
:1057A000002D3F3F3F2D2D3F3F2D00000000003FCB
:1057B0002D2D00000000003F2D0000000000002DF6
:1057C0002D0000000000002D000000000000002D52
:1057D00000000000000000000000000000000000C9
:1057E0000000000000000000002D3F3F3F2D0000A2
:1057F000002D3F3F3F2D0000002D3F3F2D2D00008D
:10580000002D3F3F2D000000002D3F2D2D000000FA
:105810002D2D3F2D000000002D2D2D2D000000000E
:105820002D2D2D00000000040802030400050607CA
:105830000008090A0B0C0D0E0F101112130014159D
:10584000000016170000180000BFBFBFFFFFBFBF5A
:10585000BFBFBFFFBFBFFFBFBFBFBFFFBFBFFFBF58
:10586000BFBFFFFFFFFFFFFFBFBFFFFFA4FFA4FFFE
:10587000BFBFFFA4FFA4FFFFBFBFFFFFFFFFFFFFEE
:10588000BFBFBFBFBFBFBFBFBFBFBFBFBFFFFFBFA8
:10589000BFBFBFBFFFBFBFFFBFBFBFBFFFBFBFFF18
:1058A000BFBFBFFFFFFFFFFFFFBFBFFFFFA4FFA4FE
:1058B000FFBFBFFFA4FFA4FFFFBFBFFFFFFFFFFFAE
:1058C000FFBFBFBFBFBFBFBFBFBFBFBFBFBFBFBFA8
:1058D000BFBFBFFFBFFFFFFFBFBFFFBFBFFFFFBF18
:1058E000BFBFFFBFBFFFBFFFBFBFFFBFFFBFBFFF48
:1058F000BFBFBFFFFFBFBFFFBFBFFFFFFFBFFFBFF8
:10590000BFBFBFBFBFBFBFBFBFBFBFBFBFBFBFBFA7
:10591000BFBFBFBFFFBFFFFFFFBFBFFFBFBFFFFFD7
:10592000BFBFBFFFBFBFFFBFFFBFBFFFBFFFBFBF47
:10593000FFBFBFBFFFFFBFBFFFBFBFFFFFFFBFFF77
:10594000BFBFBFBFBFBFBFBFBFFFFFBFBFBFBFBFE7
:10595000BFFF00FFBFBFBFBFBFFF0000FFBFBFBF94
:10596000BFFF000000FFBFBFBFFF00000000FFBF80
:10597000BFFFFFFF00FFBFBFBFBFBFBFFF00FFBF35
:10598000BFBFBFBFBFFFBFBFBF0000000000000020
:105990000000000000000000000000000000000007
:1059A000000050E8E8E8E8E8E850E8E8E8E8E8E877
:1059B000E850E8E8E8E8E8E8E80050E8E8E8E8E87F
:1059C000E8000000000000000000000000000000EF
:1059D00000000000000000000000B6FFFFB600005D
:1059E00000B6FFFFFFFFB65000FFFFFFFFFFFFE81D
:1059F00050FFFFFFFFFFFFE850B6FFFFFFFFB6506D
:105A00000000B6FFFFB6000000000000000000002C
:105A1000000000000000000000000000B6FFFFB61C
:105A2000000052B6FFFFFFFFB652A4FFFFFFFFFFCB
:105A3000FF52A4FFFFFFFFFFFF0052B6FFFFFFFF73
:105A4000B6000000B6FFFFB6000000000000000036
:105A50000000000000000000000000000000000046
:105A600000A4A4A4A4A4A45200A4A4A4A4A4A4A490
:105A700052A4A4A4A4A4A4A452A4A4A4A4A4A452DC
:105A80000000000000000000000000000000000016
:105A90000000000000000000000000000000000006
:105AA00000000000000000000000000000000000F6
:105AB00000000000000000000000000000000000E6
:105AC000000000000000000000BFBFBFBFBFBFBF9D
:105AD000BFBFBFBFBFBFBFBFBFBFBFBFBFBFBFBFD6
